{
  "_format": "hh-sol-artifact-1",
  "contractName": "Certificate",
  "sourceName": "contracts/Certificate.sol",
  "abi": [
    {
      "inputs": [],
      "stateMutability": "nonpayable",
      "type": "constructor"
    },
    {
      "anonymous": false,
      "inputs": [
        {
          "indexed": true,
          "internalType": "address",
          "name": "owner",
          "type": "address"
        },
        {
          "indexed": true,
          "internalType": "address",
          "name": "approved",
          "type": "address"
        },
        {
          "indexed": true,
          "internalType": "uint256",
          "name": "tokenId",
          "type": "uint256"
        }
      ],
      "name": "Approval",
      "type": "event"
    },
    {
      "anonymous": false,
      "inputs": [
        {
          "indexed": true,
          "internalType": "address",
          "name": "owner",
          "type": "address"
        },
        {
          "indexed": true,
          "internalType": "address",
          "name": "operator",
          "type": "address"
        },
        {
          "indexed": false,
          "internalType": "bool",
          "name": "approved",
          "type": "bool"
        }
      ],
      "name": "ApprovalForAll",
      "type": "event"
    },
    {
      "anonymous": false,
      "inputs": [
        {
          "indexed": true,
          "internalType": "address",
          "name": "delegator",
          "type": "address"
        },
        {
          "indexed": true,
          "internalType": "address",
          "name": "fromDelegate",
          "type": "address"
        },
        {
          "indexed": true,
          "internalType": "address",
          "name": "toDelegate",
          "type": "address"
        }
      ],
      "name": "DelegateChanged",
      "type": "event"
    },
    {
      "anonymous": false,
      "inputs": [
        {
          "indexed": true,
          "internalType": "address",
          "name": "delegate",
          "type": "address"
        },
        {
          "indexed": false,
          "internalType": "uint256",
          "name": "previousBalance",
          "type": "uint256"
        },
        {
          "indexed": false,
          "internalType": "uint256",
          "name": "newBalance",
          "type": "uint256"
        }
      ],
      "name": "DelegateVotesChanged",
      "type": "event"
    },
    {
      "anonymous": false,
      "inputs": [
        {
          "indexed": true,
          "internalType": "address",
          "name": "previousOwner",
          "type": "address"
        },
        {
          "indexed": true,
          "internalType": "address",
          "name": "newOwner",
          "type": "address"
        }
      ],
      "name": "OwnershipTransferred",
      "type": "event"
    },
    {
      "anonymous": false,
      "inputs": [
        {
          "indexed": false,
          "internalType": "address",
          "name": "account",
          "type": "address"
        }
      ],
      "name": "Paused",
      "type": "event"
    },
    {
      "anonymous": false,
      "inputs": [
        {
          "indexed": true,
          "internalType": "address",
          "name": "from",
          "type": "address"
        },
        {
          "indexed": true,
          "internalType": "address",
          "name": "to",
          "type": "address"
        },
        {
          "indexed": true,
          "internalType": "uint256",
          "name": "tokenId",
          "type": "uint256"
        }
      ],
      "name": "Transfer",
      "type": "event"
    },
    {
      "anonymous": false,
      "inputs": [
        {
          "indexed": false,
          "internalType": "address",
          "name": "account",
          "type": "address"
        }
      ],
      "name": "Unpaused",
      "type": "event"
    },
    {
      "inputs": [],
      "name": "DOMAIN_SEPARATOR",
      "outputs": [
        {
          "internalType": "bytes32",
          "name": "",
          "type": "bytes32"
        }
      ],
      "stateMutability": "view",
      "type": "function"
    },
    {
      "inputs": [
        {
          "internalType": "address",
          "name": "to",
          "type": "address"
        },
        {
          "internalType": "uint256",
          "name": "tokenId",
          "type": "uint256"
        }
      ],
      "name": "approve",
      "outputs": [],
      "stateMutability": "nonpayable",
      "type": "function"
    },
    {
      "inputs": [
        {
          "internalType": "address",
          "name": "owner",
          "type": "address"
        }
      ],
      "name": "balanceOf",
      "outputs": [
        {
          "internalType": "uint256",
          "name": "",
          "type": "uint256"
        }
      ],
      "stateMutability": "view",
      "type": "function"
    },
    {
      "inputs": [
        {
          "internalType": "uint256",
          "name": "tokenId",
          "type": "uint256"
        }
      ],
      "name": "burn",
      "outputs": [],
      "stateMutability": "nonpayable",
      "type": "function"
    },
    {
      "inputs": [
        {
          "internalType": "address",
          "name": "delegatee",
          "type": "address"
        }
      ],
      "name": "delegate",
      "outputs": [],
      "stateMutability": "nonpayable",
      "type": "function"
    },
    {
      "inputs": [
        {
          "internalType": "address",
          "name": "delegatee",
          "type": "address"
        },
        {
          "internalType": "uint256",
          "name": "nonce",
          "type": "uint256"
        },
        {
          "internalType": "uint256",
          "name": "expiry",
          "type": "uint256"
        },
        {
          "internalType": "uint8",
          "name": "v",
          "type": "uint8"
        },
        {
          "internalType": "bytes32",
          "name": "r",
          "type": "bytes32"
        },
        {
          "internalType": "bytes32",
          "name": "s",
          "type": "bytes32"
        }
      ],
      "name": "delegateBySig",
      "outputs": [],
      "stateMutability": "nonpayable",
      "type": "function"
    },
    {
      "inputs": [
        {
          "internalType": "address",
          "name": "account",
          "type": "address"
        }
      ],
      "name": "delegates",
      "outputs": [
        {
          "internalType": "address",
          "name": "",
          "type": "address"
        }
      ],
      "stateMutability": "view",
      "type": "function"
    },
    {
      "inputs": [
        {
          "internalType": "address",
          "name": "_user",
          "type": "address"
        }
      ],
      "name": "getAllCertificates",
      "outputs": [
        {
          "internalType": "uint256[]",
          "name": "",
          "type": "uint256[]"
        }
      ],
      "stateMutability": "view",
      "type": "function"
    },
    {
      "inputs": [
        {
          "internalType": "uint256",
          "name": "tokenId",
          "type": "uint256"
        }
      ],
      "name": "getApproved",
      "outputs": [
        {
          "internalType": "address",
          "name": "",
          "type": "address"
        }
      ],
      "stateMutability": "view",
      "type": "function"
    },
    {
      "inputs": [
        {
          "internalType": "uint256",
          "name": "blockNumber",
          "type": "uint256"
        }
      ],
      "name": "getPastTotalSupply",
      "outputs": [
        {
          "internalType": "uint256",
          "name": "",
          "type": "uint256"
        }
      ],
      "stateMutability": "view",
      "type": "function"
    },
    {
      "inputs": [
        {
          "internalType": "address",
          "name": "account",
          "type": "address"
        },
        {
          "internalType": "uint256",
          "name": "blockNumber",
          "type": "uint256"
        }
      ],
      "name": "getPastVotes",
      "outputs": [
        {
          "internalType": "uint256",
          "name": "",
          "type": "uint256"
        }
      ],
      "stateMutability": "view",
      "type": "function"
    },
    {
      "inputs": [
        {
          "internalType": "address",
          "name": "account",
          "type": "address"
        }
      ],
      "name": "getVotes",
      "outputs": [
        {
          "internalType": "uint256",
          "name": "",
          "type": "uint256"
        }
      ],
      "stateMutability": "view",
      "type": "function"
    },
    {
      "inputs": [
        {
          "internalType": "address",
          "name": "owner",
          "type": "address"
        },
        {
          "internalType": "address",
          "name": "operator",
          "type": "address"
        }
      ],
      "name": "isApprovedForAll",
      "outputs": [
        {
          "internalType": "bool",
          "name": "",
          "type": "bool"
        }
      ],
      "stateMutability": "view",
      "type": "function"
    },
    {
      "inputs": [],
      "name": "name",
      "outputs": [
        {
          "internalType": "string",
          "name": "",
          "type": "string"
        }
      ],
      "stateMutability": "view",
      "type": "function"
    },
    {
      "inputs": [
        {
          "internalType": "address",
          "name": "owner",
          "type": "address"
        }
      ],
      "name": "nonces",
      "outputs": [
        {
          "internalType": "uint256",
          "name": "",
          "type": "uint256"
        }
      ],
      "stateMutability": "view",
      "type": "function"
    },
    {
      "inputs": [],
      "name": "owner",
      "outputs": [
        {
          "internalType": "address",
          "name": "",
          "type": "address"
        }
      ],
      "stateMutability": "view",
      "type": "function"
    },
    {
      "inputs": [
        {
          "internalType": "uint256",
          "name": "tokenId",
          "type": "uint256"
        }
      ],
      "name": "ownerOf",
      "outputs": [
        {
          "internalType": "address",
          "name": "",
          "type": "address"
        }
      ],
      "stateMutability": "view",
      "type": "function"
    },
    {
      "inputs": [],
      "name": "pause",
      "outputs": [],
      "stateMutability": "nonpayable",
      "type": "function"
    },
    {
      "inputs": [],
      "name": "paused",
      "outputs": [
        {
          "internalType": "bool",
          "name": "",
          "type": "bool"
        }
      ],
      "stateMutability": "view",
      "type": "function"
    },
    {
      "inputs": [],
      "name": "renounceOwnership",
      "outputs": [],
      "stateMutability": "nonpayable",
      "type": "function"
    },
    {
      "inputs": [
        {
          "internalType": "address",
          "name": "to",
          "type": "address"
        },
        {
          "internalType": "string",
          "name": "uri",
          "type": "string"
        }
      ],
      "name": "safeMint",
      "outputs": [],
      "stateMutability": "nonpayable",
      "type": "function"
    },
    {
      "inputs": [
        {
          "internalType": "address",
          "name": "from",
          "type": "address"
        },
        {
          "internalType": "address",
          "name": "to",
          "type": "address"
        },
        {
          "internalType": "uint256",
          "name": "tokenId",
          "type": "uint256"
        }
      ],
      "name": "safeTransferFrom",
      "outputs": [],
      "stateMutability": "nonpayable",
      "type": "function"
    },
    {
      "inputs": [
        {
          "internalType": "address",
          "name": "from",
          "type": "address"
        },
        {
          "internalType": "address",
          "name": "to",
          "type": "address"
        },
        {
          "internalType": "uint256",
          "name": "tokenId",
          "type": "uint256"
        },
        {
          "internalType": "bytes",
          "name": "_data",
          "type": "bytes"
        }
      ],
      "name": "safeTransferFrom",
      "outputs": [],
      "stateMutability": "nonpayable",
      "type": "function"
    },
    {
      "inputs": [
        {
          "internalType": "address",
          "name": "operator",
          "type": "address"
        },
        {
          "internalType": "bool",
          "name": "approved",
          "type": "bool"
        }
      ],
      "name": "setApprovalForAll",
      "outputs": [],
      "stateMutability": "nonpayable",
      "type": "function"
    },
    {
      "inputs": [
        {
          "internalType": "bytes4",
          "name": "interfaceId",
          "type": "bytes4"
        }
      ],
      "name": "supportsInterface",
      "outputs": [
        {
          "internalType": "bool",
          "name": "",
          "type": "bool"
        }
      ],
      "stateMutability": "view",
      "type": "function"
    },
    {
      "inputs": [],
      "name": "symbol",
      "outputs": [
        {
          "internalType": "string",
          "name": "",
          "type": "string"
        }
      ],
      "stateMutability": "view",
      "type": "function"
    },
    {
      "inputs": [
        {
          "internalType": "uint256",
          "name": "index",
          "type": "uint256"
        }
      ],
      "name": "tokenByIndex",
      "outputs": [
        {
          "internalType": "uint256",
          "name": "",
          "type": "uint256"
        }
      ],
      "stateMutability": "view",
      "type": "function"
    },
    {
      "inputs": [
        {
          "internalType": "address",
          "name": "owner",
          "type": "address"
        },
        {
          "internalType": "uint256",
          "name": "index",
          "type": "uint256"
        }
      ],
      "name": "tokenOfOwnerByIndex",
      "outputs": [
        {
          "internalType": "uint256",
          "name": "",
          "type": "uint256"
        }
      ],
      "stateMutability": "view",
      "type": "function"
    },
    {
      "inputs": [
        {
          "internalType": "uint256",
          "name": "tokenId",
          "type": "uint256"
        }
      ],
      "name": "tokenURI",
      "outputs": [
        {
          "internalType": "string",
          "name": "",
          "type": "string"
        }
      ],
      "stateMutability": "view",
      "type": "function"
    },
    {
      "inputs": [],
      "name": "totalSupply",
      "outputs": [
        {
          "internalType": "uint256",
          "name": "",
          "type": "uint256"
        }
      ],
      "stateMutability": "view",
      "type": "function"
    },
    {
      "inputs": [
        {
          "internalType": "address",
          "name": "from",
          "type": "address"
        },
        {
          "internalType": "address",
          "name": "to",
          "type": "address"
        },
        {
          "internalType": "uint256",
          "name": "tokenId",
          "type": "uint256"
        }
      ],
      "name": "transferFrom",
      "outputs": [],
      "stateMutability": "nonpayable",
      "type": "function"
    },
    {
      "inputs": [
        {
          "internalType": "address",
          "name": "newOwner",
          "type": "address"
        }
      ],
      "name": "transferOwnership",
      "outputs": [],
      "stateMutability": "nonpayable",
      "type": "function"
    },
    {
      "inputs": [],
      "name": "unpause",
      "outputs": [],
      "stateMutability": "nonpayable",
      "type": "function"
    }
  ],
  "bytecode": "0x6101406040523480156200001257600080fd5b506040518060400160405280600881526020017f57617272616e74790000000000000000000000000000000000000000000000008152506040518060400160405280600181526020017f31000000000000000000000000000000000000000000000000000000000000008152506040518060400160405280600881526020017f57617272616e74790000000000000000000000000000000000000000000000008152506040518060400160405280600481526020017f43415244000000000000000000000000000000000000000000000000000000008152508160009080519060200190620001039291906200031c565b5080600190805190602001906200011c9291906200031c565b5050506000600b60006101000a81548160ff0219169083151502179055506200015a6200014e6200021260201b60201c565b6200021a60201b60201c565b60008280519060200120905060008280519060200120905060007f8b73c3c69bb8fe3d512ecc4cf759cc79239f7b179b0ffacaa9a75d522b39400f90508260e081815250508161010081815250504660a08181525050620001c3818484620002e060201b60201c565b608081815250503073ffffffffffffffffffffffffffffffffffffffff1660c08173ffffffffffffffffffffffffffffffffffffffff1681525050806101208181525050505050505062000509565b600033905090565b6000600b60019054906101000a900473ffffffffffffffffffffffffffffffffffffffff16905081600b60016101000a81548173ffffffffffffffffffffffffffffffffffffffff021916908373ffffffffffffffffffffffffffffffffffffffff1602179055508173ffffffffffffffffffffffffffffffffffffffff168173ffffffffffffffffffffffffffffffffffffffff167f8be0079c531659141344cd1fd0a4f28419497f9722a3daafe3b4186f6b6457e060405160405180910390a35050565b60008383834630604051602001620002fd95949392919062000447565b6040516020818303038152906040528051906020012090509392505050565b8280546200032a90620004d3565b90600052602060002090601f0160209004810192826200034e57600085556200039a565b82601f106200036957805160ff19168380011785556200039a565b828001600101855582156200039a579182015b82811115620003995782518255916020019190600101906200037c565b5b509050620003a99190620003ad565b5090565b5b80821115620003c8576000816000905550600101620003ae565b5090565b6000819050919050565b620003e181620003cc565b82525050565b6000819050919050565b620003fc81620003e7565b82525050565b600073ffffffffffffffffffffffffffffffffffffffff82169050919050565b60006200042f8262000402565b9050919050565b620004418162000422565b82525050565b600060a0820190506200045e6000830188620003d6565b6200046d6020830187620003d6565b6200047c6040830186620003d6565b6200048b6060830185620003f1565b6200049a608083018462000436565b9695505050505050565b7f4e487b7100000000000000000000000000000000000000000000000000000000600052602260045260246000fd5b60006002820490506001821680620004ec57607f821691505b60208210811415620005035762000502620004a4565b5b50919050565b60805160a05160c05160e0516101005161012051615c29620005596000396000611ae501526000611b2701526000611b0601526000611a3b01526000611a9101526000611aba0152615c296000f3fe608060405234801561001057600080fd5b50600436106101fb5760003560e01c80636352211e1161011a5780639ab24eb0116100ad578063c87b56dd1161007c578063c87b56dd146105c2578063d204c45e146105f2578063e985e9c51461060e578063ec1fe6111461063e578063f2fde38b1461066e576101fb565b80639ab24eb01461053e578063a22cb4651461056e578063b88d4fde1461058a578063c3cda520146105a6576101fb565b80638456cb59116100e95780638456cb59146104c85780638da5cb5b146104d25780638e539e8c146104f057806395d89b4114610520576101fb565b80636352211e1461042e57806370a082311461045e578063715018a61461048e5780637ecebe0014610498576101fb565b80633a46b1a8116101925780634f6ccce7116101615780634f6ccce714610394578063587cde1e146103c45780635c19a95c146103f45780635c975abb14610410576101fb565b80633a46b1a8146103225780633f4ba83a1461035257806342842e0e1461035c57806342966c6814610378576101fb565b806318160ddd116101ce57806318160ddd1461029a57806323b872dd146102b85780632f745c59146102d45780633644e51514610304576101fb565b806301ffc9a71461020057806306fdde0314610230578063081812fc1461024e578063095ea7b31461027e575b600080fd5b61021a60048036038101906102159190613d12565b61068a565b6040516102279190613d5a565b60405180910390f35b61023861069c565b6040516102459190613e0e565b60405180910390f35b61026860048036038101906102639190613e66565b61072e565b6040516102759190613ed4565b60405180910390f35b61029860048036038101906102939190613f1b565b6107b3565b005b6102a26108cb565b6040516102af9190613f6a565b60405180910390f35b6102d260048036038101906102cd9190613f85565b6108d8565b005b6102ee60048036038101906102e99190613f1b565b610938565b6040516102fb9190613f6a565b60405180910390f35b61030c6109dd565b6040516103199190613ff1565b60405180910390f35b61033c60048036038101906103379190613f1b565b6109ec565b6040516103499190613f6a565b60405180910390f35b61035a610a47565b005b61037660048036038101906103719190613f85565b610acd565b005b610392600480360381019061038d9190613e66565b610aed565b005b6103ae60048036038101906103a99190613e66565b610b49565b6040516103bb9190613f6a565b60405180910390f35b6103de60048036038101906103d9919061400c565b610bba565b6040516103eb9190613ed4565b60405180910390f35b61040e6004803603810190610409919061400c565b610c23565b005b610418610c3d565b6040516104259190613d5a565b60405180910390f35b61044860048036038101906104439190613e66565b610c54565b6040516104559190613ed4565b60405180910390f35b6104786004803603810190610473919061400c565b610d06565b6040516104859190613f6a565b60405180910390f35b610496610dbe565b005b6104b260048036038101906104ad919061400c565b610e46565b6040516104bf9190613f6a565b60405180910390f35b6104d0610e96565b005b6104da610f1c565b6040516104e79190613ed4565b60405180910390f35b61050a60048036038101906105059190613e66565b610f46565b6040516105179190613f6a565b60405180910390f35b610528610fa5565b6040516105359190613e0e565b60405180910390f35b6105586004803603810190610553919061400c565b611037565b6040516105659190613f6a565b60405180910390f35b61058860048036038101906105839190614065565b611087565b005b6105a4600480360381019061059f91906141da565b61109d565b005b6105c060048036038101906105bb91906142c2565b6110ff565b005b6105dc60048036038101906105d79190613e66565b611203565b6040516105e99190613e0e565b60405180910390f35b61060c600480360381019061060791906143f0565b611215565b005b6106286004803603810190610623919061444c565b611328565b6040516106359190613d5a565b60405180910390f35b6106586004803603810190610653919061400c565b6113bc565b604051610665919061454a565b60405180910390f35b6106886004803603810190610683919061400c565b611453565b005b60006106958261154b565b9050919050565b6060600080546106ab9061459b565b80601f01602080910402602001604051908101604052809291908181526020018280546106d79061459b565b80156107245780601f106106f957610100808354040283529160200191610724565b820191906000526020600020905b81548152906001019060200180831161070757829003601f168201915b5050505050905090565b6000610739826115c5565b610778576040517f08c379a000000000000000000000000000000000000000000000000000000000815260040161076f9061463f565b60405180910390fd5b6004600083815260200190815260200160002060009054906101000a900473ffffffffffffffffffffffffffffffffffffffff169050919050565b60006107be82610c54565b90508073ffffffffffffffffffffffffffffffffffffffff168373ffffffffffffffffffffffffffffffffffffffff16141561082f576040517f08c379a0000000000000000000000000000000000000000000000000000000008152600401610826906146d1565b60405180910390fd5b8073ffffffffffffffffffffffffffffffffffffffff1661084e611631565b73ffffffffffffffffffffffffffffffffffffffff16148061087d575061087c81610877611631565b611328565b5b6108bc576040517f08c379a00000000000000000000000000000000000000000000000000000000081526004016108b390614763565b60405180910390fd5b6108c68383611639565b505050565b6000600880549050905090565b6108e96108e3611631565b826116f2565b610928576040517f08c379a000000000000000000000000000000000000000000000000000000000815260040161091f906147f5565b60405180910390fd5b6109338383836117d0565b505050565b600061094383610d06565b8210610984576040517f08c379a000000000000000000000000000000000000000000000000000000000815260040161097b90614887565b60405180910390fd5b600660008473ffffffffffffffffffffffffffffffffffffffff1673ffffffffffffffffffffffffffffffffffffffff168152602001908152602001600020600083815260200190815260200160002054905092915050565b60006109e7611a37565b905090565b6000610a3f82600d60008673ffffffffffffffffffffffffffffffffffffffff1673ffffffffffffffffffffffffffffffffffffffff168152602001908152602001600020611b5190919063ffffffff16565b905092915050565b610a4f611631565b73ffffffffffffffffffffffffffffffffffffffff16610a6d610f1c565b73ffffffffffffffffffffffffffffffffffffffff1614610ac3576040517f08c379a0000000000000000000000000000000000000000000000000000000008152600401610aba906148f3565b60405180910390fd5b610acb611ca9565b565b610ae88383836040518060200160405280600081525061109d565b505050565b610afe610af8611631565b826116f2565b610b3d576040517f08c379a0000000000000000000000000000000000000000000000000000000008152600401610b3490614985565b60405180910390fd5b610b4681611d4b565b50565b6000610b536108cb565b8210610b94576040517f08c379a0000000000000000000000000000000000000000000000000000000008152600401610b8b90614a17565b60405180910390fd5b60088281548110610ba857610ba7614a37565b5b90600052602060002001549050919050565b6000600c60008373ffffffffffffffffffffffffffffffffffffffff1673ffffffffffffffffffffffffffffffffffffffff16815260200190815260200160002060009054906101000a900473ffffffffffffffffffffffffffffffffffffffff169050919050565b6000610c2d611631565b9050610c398183611d57565b5050565b6000600b60009054906101000a900460ff16905090565b6000806002600084815260200190815260200160002060009054906101000a900473ffffffffffffffffffffffffffffffffffffffff169050600073ffffffffffffffffffffffffffffffffffffffff168173ffffffffffffffffffffffffffffffffffffffff161415610cfd576040517f08c379a0000000000000000000000000000000000000000000000000000000008152600401610cf490614ad8565b60405180910390fd5b80915050919050565b60008073ffffffffffffffffffffffffffffffffffffffff168273ffffffffffffffffffffffffffffffffffffffff161415610d77576040517f08c379a0000000000000000000000000000000000000000000000000000000008152600401610d6e90614b6a565b60405180910390fd5b600360008373ffffffffffffffffffffffffffffffffffffffff1673ffffffffffffffffffffffffffffffffffffffff168152602001908152602001600020549050919050565b610dc6611631565b73ffffffffffffffffffffffffffffffffffffffff16610de4610f1c565b73ffffffffffffffffffffffffffffffffffffffff1614610e3a576040517f08c379a0000000000000000000000000000000000000000000000000000000008152600401610e31906148f3565b60405180910390fd5b610e446000611e6b565b565b6000610e8f600f60008473ffffffffffffffffffffffffffffffffffffffff1673ffffffffffffffffffffffffffffffffffffffff168152602001908152602001600020611f31565b9050919050565b610e9e611631565b73ffffffffffffffffffffffffffffffffffffffff16610ebc610f1c565b73ffffffffffffffffffffffffffffffffffffffff1614610f12576040517f08c379a0000000000000000000000000000000000000000000000000000000008152600401610f09906148f3565b60405180910390fd5b610f1a611f3f565b565b6000600b60019054906101000a900473ffffffffffffffffffffffffffffffffffffffff16905090565b6000438210610f8a576040517f08c379a0000000000000000000000000000000000000000000000000000000008152600401610f8190614bd6565b60405180910390fd5b610f9e82600e611b5190919063ffffffff16565b9050919050565b606060018054610fb49061459b565b80601f0160208091040260200160405190810160405280929190818152602001828054610fe09061459b565b801561102d5780601f106110025761010080835404028352916020019161102d565b820191906000526020600020905b81548152906001019060200180831161101057829003601f168201915b5050505050905090565b6000611080600d60008473ffffffffffffffffffffffffffffffffffffffff1673ffffffffffffffffffffffffffffffffffffffff168152602001908152602001600020611fe2565b9050919050565b611099611092611631565b838361207d565b5050565b6110ae6110a8611631565b836116f2565b6110ed576040517f08c379a00000000000000000000000000000000000000000000000000000000081526004016110e4906147f5565b60405180910390fd5b6110f9848484846121ea565b50505050565b83421115611142576040517f08c379a000000000000000000000000000000000000000000000000000000000815260040161113990614c42565b60405180910390fd5b60006111a461119c7fe48329057bfd03d55e49b547132e39cffd9c1820ad7b9d4c5307691425d15adf8989896040516020016111819493929190614c62565b60405160208183030381529060405280519060200120612246565b858585612260565b90506111af8161228b565b86146111f0576040517f08c379a00000000000000000000000000000000000000000000000000000000081526004016111e790614cf3565b60405180910390fd5b6111fa8188611d57565b50505050505050565b606061120e826122e9565b9050919050565b61121d611631565b73ffffffffffffffffffffffffffffffffffffffff1661123b610f1c565b73ffffffffffffffffffffffffffffffffffffffff1614611291576040517f08c379a0000000000000000000000000000000000000000000000000000000008152600401611288906148f3565b60405180910390fd5b600061129d6010611f31565b9050601160008473ffffffffffffffffffffffffffffffffffffffff1673ffffffffffffffffffffffffffffffffffffffff16815260200190815260200160002081908060018154018082558091505060019003906000526020600020016000909190919091505561130f601061243b565b6113198382612451565b611323818361246f565b505050565b6000600560008473ffffffffffffffffffffffffffffffffffffffff1673ffffffffffffffffffffffffffffffffffffffff16815260200190815260200160002060008373ffffffffffffffffffffffffffffffffffffffff1673ffffffffffffffffffffffffffffffffffffffff16815260200190815260200160002060009054906101000a900460ff16905092915050565b6060601160008373ffffffffffffffffffffffffffffffffffffffff1673ffffffffffffffffffffffffffffffffffffffff16815260200190815260200160002080548060200260200160405190810160405280929190818152602001828054801561144757602002820191906000526020600020905b815481526020019060010190808311611433575b50505050509050919050565b61145b611631565b73ffffffffffffffffffffffffffffffffffffffff16611479610f1c565b73ffffffffffffffffffffffffffffffffffffffff16146114cf576040517f08c379a00000000000000000000000000000000000000000000000000000000081526004016114c6906148f3565b60405180910390fd5b600073ffffffffffffffffffffffffffffffffffffffff168173ffffffffffffffffffffffffffffffffffffffff16141561153f576040517f08c379a000000000000000000000000000000000000000000000000000000000815260040161153690614d85565b60405180910390fd5b61154881611e6b565b50565b60007f780e9d63000000000000000000000000000000000000000000000000000000007bffffffffffffffffffffffffffffffffffffffffffffffffffffffff1916827bffffffffffffffffffffffffffffffffffffffffffffffffffffffff191614806115be57506115bd826124e3565b5b9050919050565b60008073ffffffffffffffffffffffffffffffffffffffff166002600084815260200190815260200160002060009054906101000a900473ffffffffffffffffffffffffffffffffffffffff1673ffffffffffffffffffffffffffffffffffffffff1614159050919050565b600033905090565b816004600083815260200190815260200160002060006101000a81548173ffffffffffffffffffffffffffffffffffffffff021916908373ffffffffffffffffffffffffffffffffffffffff160217905550808273ffffffffffffffffffffffffffffffffffffffff166116ac83610c54565b73ffffffffffffffffffffffffffffffffffffffff167f8c5be1e5ebec7d5bd14f71427d1e84f3dd0314c0f7b2291e5b200ac8c7c3b92560405160405180910390a45050565b60006116fd826115c5565b61173c576040517f08c379a000000000000000000000000000000000000000000000000000000000815260040161173390614e17565b60405180910390fd5b600061174783610c54565b90508073ffffffffffffffffffffffffffffffffffffffff168473ffffffffffffffffffffffffffffffffffffffff16148061178957506117888185611328565b5b806117c757508373ffffffffffffffffffffffffffffffffffffffff166117af8461072e565b73ffffffffffffffffffffffffffffffffffffffff16145b91505092915050565b8273ffffffffffffffffffffffffffffffffffffffff166117f082610c54565b73ffffffffffffffffffffffffffffffffffffffff1614611846576040517f08c379a000000000000000000000000000000000000000000000000000000000815260040161183d90614ea9565b60405180910390fd5b600073ffffffffffffffffffffffffffffffffffffffff168273ffffffffffffffffffffffffffffffffffffffff1614156118b6576040517f08c379a00000000000000000000000000000000000000000000000000000000081526004016118ad90614f3b565b60405180910390fd5b6118c18383836125c5565b6118cc600082611639565b6001600360008573ffffffffffffffffffffffffffffffffffffffff1673ffffffffffffffffffffffffffffffffffffffff168152602001908152602001600020600082825461191c9190614f8a565b925050819055506001600360008473ffffffffffffffffffffffffffffffffffffffff1673ffffffffffffffffffffffffffffffffffffffff16815260200190815260200160002060008282546119739190614fbe565b92505081905550816002600083815260200190815260200160002060006101000a81548173ffffffffffffffffffffffffffffffffffffffff021916908373ffffffffffffffffffffffffffffffffffffffff160217905550808273ffffffffffffffffffffffffffffffffffffffff168473ffffffffffffffffffffffffffffffffffffffff167fddf252ad1be2c89b69c2b068fc378daa952ba7f163c4a11628f55a4df523b3ef60405160405180910390a4611a3283838361261d565b505050565b60007f000000000000000000000000000000000000000000000000000000000000000073ffffffffffffffffffffffffffffffffffffffff163073ffffffffffffffffffffffffffffffffffffffff16148015611ab357507f000000000000000000000000000000000000000000000000000000000000000046145b15611ae0577f00000000000000000000000000000000000000000000000000000000000000009050611b4e565b611b4b7f00000000000000000000000000000000000000000000000000000000000000007f00000000000000000000000000000000000000000000000000000000000000007f000000000000000000000000000000000000000000000000000000000000000061262d565b90505b90565b6000438210611b95576040517f08c379a0000000000000000000000000000000000000000000000000000000008152600401611b8c90615060565b60405180910390fd5b60008360000180549050905060005b81811015611c19576000611bb88284612667565b905084866000018281548110611bd157611bd0614a37565b5b9060005260206000200160000160009054906101000a900463ffffffff1663ffffffff161115611c0357809250611c13565b600181611c109190614fbe565b91505b50611ba4565b60008214611c7e5784600001600183611c329190614f8a565b81548110611c4357611c42614a37565b5b9060005260206000200160000160049054906101000a90047bffffffffffffffffffffffffffffffffffffffffffffffffffffffff16611c81565b60005b7bffffffffffffffffffffffffffffffffffffffffffffffffffffffff169250505092915050565b611cb1610c3d565b611cf0576040517f08c379a0000000000000000000000000000000000000000000000000000000008152600401611ce7906150cc565b60405180910390fd5b6000600b60006101000a81548160ff0219169083151502179055507f5db9ee0a495bf2e6ff9c91a7834c1ba4fdd244a5e8aa4e537bd38aeae4b073aa611d34611631565b604051611d419190613ed4565b60405180910390a1565b611d548161268d565b50565b6000611d6283610bba565b905081600c60008573ffffffffffffffffffffffffffffffffffffffff1673ffffffffffffffffffffffffffffffffffffffff16815260200190815260200160002060006101000a81548173ffffffffffffffffffffffffffffffffffffffff021916908373ffffffffffffffffffffffffffffffffffffffff1602179055508173ffffffffffffffffffffffffffffffffffffffff168173ffffffffffffffffffffffffffffffffffffffff168473ffffffffffffffffffffffffffffffffffffffff167f3134e8a2e6d97e929a7e54011ea5485d7d196dd5f0ba4d4ef95803e8e3fc257f60405160405180910390a4611e668183611e61866126e0565b6126f2565b505050565b6000600b60019054906101000a900473ffffffffffffffffffffffffffffffffffffffff16905081600b60016101000a81548173ffffffffffffffffffffffffffffffffffffffff021916908373ffffffffffffffffffffffffffffffffffffffff1602179055508173ffffffffffffffffffffffffffffffffffffffff168173ffffffffffffffffffffffffffffffffffffffff167f8be0079c531659141344cd1fd0a4f28419497f9722a3daafe3b4186f6b6457e060405160405180910390a35050565b600081600001549050919050565b611f47610c3d565b15611f87576040517f08c379a0000000000000000000000000000000000000000000000000000000008152600401611f7e90615138565b60405180910390fd5b6001600b60006101000a81548160ff0219169083151502179055507f62e78cea01bee320cd4e420270b5ea74000d11b0c9f74754ebdbfc544b05a258611fcb611631565b604051611fd89190613ed4565b60405180910390a1565b600080826000018054905090506000811461205457826000016001826120089190614f8a565b8154811061201957612018614a37565b5b9060005260206000200160000160049054906101000a90047bffffffffffffffffffffffffffffffffffffffffffffffffffffffff16612057565b60005b7bffffffffffffffffffffffffffffffffffffffffffffffffffffffff16915050919050565b8173ffffffffffffffffffffffffffffffffffffffff168373ffffffffffffffffffffffffffffffffffffffff1614156120ec576040517f08c379a00000000000000000000000000000000000000000000000000000000081526004016120e3906151a4565b60405180910390fd5b80600560008573ffffffffffffffffffffffffffffffffffffffff1673ffffffffffffffffffffffffffffffffffffffff16815260200190815260200160002060008473ffffffffffffffffffffffffffffffffffffffff1673ffffffffffffffffffffffffffffffffffffffff16815260200190815260200160002060006101000a81548160ff0219169083151502179055508173ffffffffffffffffffffffffffffffffffffffff168373ffffffffffffffffffffffffffffffffffffffff167f17307eab39ab6107e8899845ad3d59bd9653f200f220920489ca2b5937696c31836040516121dd9190613d5a565b60405180910390a3505050565b6121f58484846117d0565b612201848484846128ff565b612240576040517f08c379a000000000000000000000000000000000000000000000000000000000815260040161223790615236565b60405180910390fd5b50505050565b6000612259612253611a37565b83612a96565b9050919050565b600080600061227187878787612ac9565b9150915061227e81612bd6565b8192505050949350505050565b600080600f60008473ffffffffffffffffffffffffffffffffffffffff1673ffffffffffffffffffffffffffffffffffffffff16815260200190815260200160002090506122d881611f31565b91506122e38161243b565b50919050565b60606122f4826115c5565b612333576040517f08c379a000000000000000000000000000000000000000000000000000000000815260040161232a906152c8565b60405180910390fd5b6000600a600084815260200190815260200160002080546123539061459b565b80601f016020809104026020016040519081016040528092919081815260200182805461237f9061459b565b80156123cc5780601f106123a1576101008083540402835291602001916123cc565b820191906000526020600020905b8154815290600101906020018083116123af57829003601f168201915b5050505050905060006123dd612dab565b90506000815114156123f3578192505050612436565b600082511115612428578082604051602001612410929190615324565b60405160208183030381529060405292505050612436565b61243184612dc2565b925050505b919050565b6001816000016000828254019250508190555050565b61246b828260405180602001604052806000815250612e69565b5050565b612478826115c5565b6124b7576040517f08c379a00000000000000000000000000000000000000000000000000000000081526004016124ae906153ba565b60405180910390fd5b80600a600084815260200190815260200160002090805190602001906124de929190613bc3565b505050565b60007f80ac58cd000000000000000000000000000000000000000000000000000000007bffffffffffffffffffffffffffffffffffffffffffffffffffffffff1916827bffffffffffffffffffffffffffffffffffffffffffffffffffffffff191614806125ae57507f5b5e139f000000000000000000000000000000000000000000000000000000007bffffffffffffffffffffffffffffffffffffffffffffffffffffffff1916827bffffffffffffffffffffffffffffffffffffffffffffffffffffffff1916145b806125be57506125bd82612ec4565b5b9050919050565b6125cd610c3d565b1561260d576040517f08c379a000000000000000000000000000000000000000000000000000000000815260040161260490615138565b60405180910390fd5b612618838383612f2e565b505050565b612628838383613042565b505050565b600083838346306040516020016126489594939291906153da565b6040516020818303038152906040528051906020012090509392505050565b60006002828418612678919061545c565b8284166126859190614fbe565b905092915050565b6126968161305e565b6000600a600083815260200190815260200160002080546126b69061459b565b9050146126dd57600a600082815260200190815260200160002060006126dc9190613c49565b5b50565b60006126eb82610d06565b9050919050565b8173ffffffffffffffffffffffffffffffffffffffff168373ffffffffffffffffffffffffffffffffffffffff161415801561272e5750600081115b156128fa57600073ffffffffffffffffffffffffffffffffffffffff168373ffffffffffffffffffffffffffffffffffffffff1614612816576000806127bf61317b84600d60008973ffffffffffffffffffffffffffffffffffffffff1673ffffffffffffffffffffffffffffffffffffffff1681526020019081526020016000206131919092919063ffffffff16565b915091508473ffffffffffffffffffffffffffffffffffffffff167fdec2bacdd2f05b59de34da9b523dff8be42e5e38e818c82fdb0bae774387a724838360405161280b92919061548d565b60405180910390a250505b600073ffffffffffffffffffffffffffffffffffffffff168273ffffffffffffffffffffffffffffffffffffffff16146128f9576000806128a26131bf84600d60008873ffffffffffffffffffffffffffffffffffffffff1673ffffffffffffffffffffffffffffffffffffffff1681526020019081526020016000206131919092919063ffffffff16565b915091508373ffffffffffffffffffffffffffffffffffffffff167fdec2bacdd2f05b59de34da9b523dff8be42e5e38e818c82fdb0bae774387a72483836040516128ee92919061548d565b60405180910390a250505b5b505050565b60006129208473ffffffffffffffffffffffffffffffffffffffff166131d5565b15612a89578373ffffffffffffffffffffffffffffffffffffffff1663150b7a02612949611631565b8786866040518563ffffffff1660e01b815260040161296b949392919061550b565b602060405180830381600087803b15801561298557600080fd5b505af19250505080156129b657506040513d601f19601f820116820180604052508101906129b3919061556c565b60015b612a39573d80600081146129e6576040519150601f19603f3d011682016040523d82523d6000602084013e6129eb565b606091505b50600081511415612a31576040517f08c379a0000000000000000000000000000000000000000000000000000000008152600401612a2890615236565b60405180910390fd5b805181602001fd5b63150b7a0260e01b7bffffffffffffffffffffffffffffffffffffffffffffffffffffffff1916817bffffffffffffffffffffffffffffffffffffffffffffffffffffffff191614915050612a8e565b600190505b949350505050565b60008282604051602001612aab929190615606565b60405160208183030381529060405280519060200120905092915050565b6000807f7fffffffffffffffffffffffffffffff5d576e7357a4501ddfe92f46681b20a08360001c1115612b04576000600391509150612bcd565b601b8560ff1614158015612b1c5750601c8560ff1614155b15612b2e576000600491509150612bcd565b600060018787878760405160008152602001604052604051612b53949392919061564c565b6020604051602081039080840390855afa158015612b75573d6000803e3d6000fd5b505050602060405103519050600073ffffffffffffffffffffffffffffffffffffffff168173ffffffffffffffffffffffffffffffffffffffff161415612bc457600060019250925050612bcd565b80600092509250505b94509492505050565b60006004811115612bea57612be9615691565b5b816004811115612bfd57612bfc615691565b5b1415612c0857612da8565b60016004811115612c1c57612c1b615691565b5b816004811115612c2f57612c2e615691565b5b1415612c70576040517f08c379a0000000000000000000000000000000000000000000000000000000008152600401612c679061570c565b60405180910390fd5b60026004811115612c8457612c83615691565b5b816004811115612c9757612c96615691565b5b1415612cd8576040517f08c379a0000000000000000000000000000000000000000000000000000000008152600401612ccf90615778565b60405180910390fd5b60036004811115612cec57612ceb615691565b5b816004811115612cff57612cfe615691565b5b1415612d40576040517f08c379a0000000000000000000000000000000000000000000000000000000008152600401612d379061580a565b60405180910390fd5b600480811115612d5357612d52615691565b5b816004811115612d6657612d65615691565b5b1415612da7576040517f08c379a0000000000000000000000000000000000000000000000000000000008152600401612d9e9061589c565b60405180910390fd5b5b50565b606060405180602001604052806000815250905090565b6060612dcd826115c5565b612e0c576040517f08c379a0000000000000000000000000000000000000000000000000000000008152600401612e039061592e565b60405180910390fd5b6000612e16612dab565b90506000815111612e365760405180602001604052806000815250612e61565b80612e40846131f8565b604051602001612e51929190615324565b6040516020818303038152906040525b915050919050565b612e738383613359565b612e8060008484846128ff565b612ebf576040517f08c379a0000000000000000000000000000000000000000000000000000000008152600401612eb690615236565b60405180910390fd5b505050565b60007f01ffc9a7000000000000000000000000000000000000000000000000000000007bffffffffffffffffffffffffffffffffffffffffffffffffffffffff1916827bffffffffffffffffffffffffffffffffffffffffffffffffffffffff1916149050919050565b612f39838383613533565b600073ffffffffffffffffffffffffffffffffffffffff168373ffffffffffffffffffffffffffffffffffffffff161415612f7c57612f7781613538565b612fbb565b8173ffffffffffffffffffffffffffffffffffffffff168373ffffffffffffffffffffffffffffffffffffffff1614612fba57612fb98382613581565b5b5b600073ffffffffffffffffffffffffffffffffffffffff168273ffffffffffffffffffffffffffffffffffffffff161415612ffe57612ff9816136ee565b61303d565b8273ffffffffffffffffffffffffffffffffffffffff168273ffffffffffffffffffffffffffffffffffffffff161461303c5761303b82826137bf565b5b5b505050565b61304e8383600161383e565b6130598383836138fe565b505050565b600061306982610c54565b9050613077816000846125c5565b613082600083611639565b6001600360008373ffffffffffffffffffffffffffffffffffffffff1673ffffffffffffffffffffffffffffffffffffffff16815260200190815260200160002060008282546130d29190614f8a565b925050819055506002600083815260200190815260200160002060006101000a81549073ffffffffffffffffffffffffffffffffffffffff021916905581600073ffffffffffffffffffffffffffffffffffffffff168273ffffffffffffffffffffffffffffffffffffffff167fddf252ad1be2c89b69c2b068fc378daa952ba7f163c4a11628f55a4df523b3ef60405160405180910390a46131778160008461261d565b5050565b600081836131899190614f8a565b905092915050565b6000806131b3856131ae6131a488611fe2565b868863ffffffff16565b613903565b91509150935093915050565b600081836131cd9190614fbe565b905092915050565b6000808273ffffffffffffffffffffffffffffffffffffffff163b119050919050565b60606000821415613240576040518060400160405280600181526020017f30000000000000000000000000000000000000000000000000000000000000008152509050613354565b600082905060005b6000821461327257808061325b9061594e565b915050600a8261326b919061545c565b9150613248565b60008167ffffffffffffffff81111561328e5761328d6140af565b5b6040519080825280601f01601f1916602001820160405280156132c05781602001600182028036833780820191505090505b5090505b6000851461334d576001826132d99190614f8a565b9150600a856132e89190615997565b60306132f49190614fbe565b60f81b81838151811061330a57613309614a37565b5b60200101907effffffffffffffffffffffffffffffffffffffffffffffffffffffffffffff1916908160001a905350600a85613346919061545c565b94506132c4565b8093505050505b919050565b600073ffffffffffffffffffffffffffffffffffffffff168273ffffffffffffffffffffffffffffffffffffffff1614156133c9576040517f08c379a00000000000000000000000000000000000000000000000000000000081526004016133c090615a14565b60405180910390fd5b6133d2816115c5565b15613412576040517f08c379a000000000000000000000000000000000000000000000000000000000815260040161340990615a80565b60405180910390fd5b61341e600083836125c5565b6001600360008473ffffffffffffffffffffffffffffffffffffffff1673ffffffffffffffffffffffffffffffffffffffff168152602001908152602001600020600082825461346e9190614fbe565b92505081905550816002600083815260200190815260200160002060006101000a81548173ffffffffffffffffffffffffffffffffffffffff021916908373ffffffffffffffffffffffffffffffffffffffff160217905550808273ffffffffffffffffffffffffffffffffffffffff16600073ffffffffffffffffffffffffffffffffffffffff167fddf252ad1be2c89b69c2b068fc378daa952ba7f163c4a11628f55a4df523b3ef60405160405180910390a461352f6000838361261d565b5050565b505050565b6008805490506009600083815260200190815260200160002081905550600881908060018154018082558091505060019003906000526020600020016000909190919091505550565b6000600161358e84610d06565b6135989190614f8a565b905060006007600084815260200190815260200160002054905081811461367d576000600660008673ffffffffffffffffffffffffffffffffffffffff1673ffffffffffffffffffffffffffffffffffffffff168152602001908152602001600020600084815260200190815260200160002054905080600660008773ffffffffffffffffffffffffffffffffffffffff1673ffffffffffffffffffffffffffffffffffffffff168152602001908152602001600020600084815260200190815260200160002081905550816007600083815260200190815260200160002081905550505b6007600084815260200190815260200160002060009055600660008573ffffffffffffffffffffffffffffffffffffffff1673ffffffffffffffffffffffffffffffffffffffff16815260200190815260200160002060008381526020019081526020016000206000905550505050565b600060016008805490506137029190614f8a565b905060006009600084815260200190815260200160002054905060006008838154811061373257613731614a37565b5b90600052602060002001549050806008838154811061375457613753614a37565b5b9060005260206000200181905550816009600083815260200190815260200160002081905550600960008581526020019081526020016000206000905560088054806137a3576137a2615aa0565b5b6001900381819060005260206000200160009055905550505050565b60006137ca83610d06565b905081600660008573ffffffffffffffffffffffffffffffffffffffff1673ffffffffffffffffffffffffffffffffffffffff168152602001908152602001600020600083815260200190815260200160002081905550806007600084815260200190815260200160002081905550505050565b600073ffffffffffffffffffffffffffffffffffffffff168373ffffffffffffffffffffffffffffffffffffffff16141561388e5761388b6131bf82600e6131919092919063ffffffff16565b50505b600073ffffffffffffffffffffffffffffffffffffffff168273ffffffffffffffffffffffffffffffffffffffff1614156138de576138db61317b82600e6131919092919063ffffffff16565b50505b6138f96138ea84610bba565b6138f384610bba565b836126f2565b505050565b505050565b600080600084600001805490509050600061391d86611fe2565b90506000821180156139735750438660000160018461393c9190614f8a565b8154811061394d5761394c614a37565b5b9060005260206000200160000160009054906101000a900463ffffffff1663ffffffff16145b15613a035761398185613b05565b866000016001846139929190614f8a565b815481106139a3576139a2614a37565b5b9060005260206000200160000160046101000a8154817bffffffffffffffffffffffffffffffffffffffffffffffffffffffff02191690837bffffffffffffffffffffffffffffffffffffffffffffffffffffffff160217905550613af6565b856000016040518060400160405280613a1b43613b70565b63ffffffff168152602001613a2f88613b05565b7bffffffffffffffffffffffffffffffffffffffffffffffffffffffff168152509080600181540180825580915050600190039060005260206000200160009091909190915060008201518160000160006101000a81548163ffffffff021916908363ffffffff16021790555060208201518160000160046101000a8154817bffffffffffffffffffffffffffffffffffffffffffffffffffffffff02191690837bffffffffffffffffffffffffffffffffffffffffffffffffffffffff16021790555050505b80859350935050509250929050565b60007bffffffffffffffffffffffffffffffffffffffffffffffffffffffff8016821115613b68576040517f08c379a0000000000000000000000000000000000000000000000000000000008152600401613b5f90615b41565b60405180910390fd5b819050919050565b600063ffffffff8016821115613bbb576040517f08c379a0000000000000000000000000000000000000000000000000000000008152600401613bb290615bd3565b60405180910390fd5b819050919050565b828054613bcf9061459b565b90600052602060002090601f016020900481019282613bf15760008555613c38565b82601f10613c0a57805160ff1916838001178555613c38565b82800160010185558215613c38579182015b82811115613c37578251825591602001919060010190613c1c565b5b509050613c459190613c89565b5090565b508054613c559061459b565b6000825580601f10613c675750613c86565b601f016020900490600052602060002090810190613c859190613c89565b5b50565b5b80821115613ca2576000816000905550600101613c8a565b5090565b6000604051905090565b600080fd5b600080fd5b60007fffffffff0000000000000000000000000000000000000000000000000000000082169050919050565b613cef81613cba565b8114613cfa57600080fd5b50565b600081359050613d0c81613ce6565b92915050565b600060208284031215613d2857613d27613cb0565b5b6000613d3684828501613cfd565b91505092915050565b60008115159050919050565b613d5481613d3f565b82525050565b6000602082019050613d6f6000830184613d4b565b92915050565b600081519050919050565b600082825260208201905092915050565b60005b83811015613daf578082015181840152602081019050613d94565b83811115613dbe576000848401525b50505050565b6000601f19601f8301169050919050565b6000613de082613d75565b613dea8185613d80565b9350613dfa818560208601613d91565b613e0381613dc4565b840191505092915050565b60006020820190508181036000830152613e288184613dd5565b905092915050565b6000819050919050565b613e4381613e30565b8114613e4e57600080fd5b50565b600081359050613e6081613e3a565b92915050565b600060208284031215613e7c57613e7b613cb0565b5b6000613e8a84828501613e51565b91505092915050565b600073ffffffffffffffffffffffffffffffffffffffff82169050919050565b6000613ebe82613e93565b9050919050565b613ece81613eb3565b82525050565b6000602082019050613ee96000830184613ec5565b92915050565b613ef881613eb3565b8114613f0357600080fd5b50565b600081359050613f1581613eef565b92915050565b60008060408385031215613f3257613f31613cb0565b5b6000613f4085828601613f06565b9250506020613f5185828601613e51565b9150509250929050565b613f6481613e30565b82525050565b6000602082019050613f7f6000830184613f5b565b92915050565b600080600060608486031215613f9e57613f9d613cb0565b5b6000613fac86828701613f06565b9350506020613fbd86828701613f06565b9250506040613fce86828701613e51565b9150509250925092565b6000819050919050565b613feb81613fd8565b82525050565b60006020820190506140066000830184613fe2565b92915050565b60006020828403121561402257614021613cb0565b5b600061403084828501613f06565b91505092915050565b61404281613d3f565b811461404d57600080fd5b50565b60008135905061405f81614039565b92915050565b6000806040838503121561407c5761407b613cb0565b5b600061408a85828601613f06565b925050602061409b85828601614050565b9150509250929050565b600080fd5b600080fd5b7f4e487b7100000000000000000000000000000000000000000000000000000000600052604160045260246000fd5b6140e782613dc4565b810181811067ffffffffffffffff82111715614106576141056140af565b5b80604052505050565b6000614119613ca6565b905061412582826140de565b919050565b600067ffffffffffffffff821115614145576141446140af565b5b61414e82613dc4565b9050602081019050919050565b82818337600083830152505050565b600061417d6141788461412a565b61410f565b905082815260208101848484011115614199576141986140aa565b5b6141a484828561415b565b509392505050565b600082601f8301126141c1576141c06140a5565b5b81356141d184826020860161416a565b91505092915050565b600080600080608085870312156141f4576141f3613cb0565b5b600061420287828801613f06565b945050602061421387828801613f06565b935050604061422487828801613e51565b925050606085013567ffffffffffffffff81111561424557614244613cb5565b5b614251878288016141ac565b91505092959194509250565b600060ff82169050919050565b6142738161425d565b811461427e57600080fd5b50565b6000813590506142908161426a565b92915050565b61429f81613fd8565b81146142aa57600080fd5b50565b6000813590506142bc81614296565b92915050565b60008060008060008060c087890312156142df576142de613cb0565b5b60006142ed89828a01613f06565b96505060206142fe89828a01613e51565b955050604061430f89828a01613e51565b945050606061432089828a01614281565b935050608061433189828a016142ad565b92505060a061434289828a016142ad565b9150509295509295509295565b600067ffffffffffffffff82111561436a576143696140af565b5b61437382613dc4565b9050602081019050919050565b600061439361438e8461434f565b61410f565b9050828152602081018484840111156143af576143ae6140aa565b5b6143ba84828561415b565b509392505050565b600082601f8301126143d7576143d66140a5565b5b81356143e7848260208601614380565b91505092915050565b6000806040838503121561440757614406613cb0565b5b600061441585828601613f06565b925050602083013567ffffffffffffffff81111561443657614435613cb5565b5b614442858286016143c2565b9150509250929050565b6000806040838503121561446357614462613cb0565b5b600061447185828601613f06565b925050602061448285828601613f06565b9150509250929050565b600081519050919050565b600082825260208201905092915050565b6000819050602082019050919050565b6144c181613e30565b82525050565b60006144d383836144b8565b60208301905092915050565b6000602082019050919050565b60006144f78261448c565b6145018185614497565b935061450c836144a8565b8060005b8381101561453d57815161452488826144c7565b975061452f836144df565b925050600181019050614510565b5085935050505092915050565b6000602082019050818103600083015261456481846144ec565b905092915050565b7f4e487b7100000000000000000000000000000000000000000000000000000000600052602260045260246000fd5b600060028204905060018216806145b357607f821691505b602082108114156145c7576145c661456c565b5b50919050565b7f4552433732313a20617070726f76656420717565727920666f72206e6f6e657860008201527f697374656e7420746f6b656e0000000000000000000000000000000000000000602082015250565b6000614629602c83613d80565b9150614634826145cd565b604082019050919050565b600060208201905081810360008301526146588161461c565b9050919050565b7f4552433732313a20617070726f76616c20746f2063757272656e74206f776e6560008201527f7200000000000000000000000000000000000000000000000000000000000000602082015250565b60006146bb602183613d80565b91506146c68261465f565b604082019050919050565b600060208201905081810360008301526146ea816146ae565b9050919050565b7f4552433732313a20617070726f76652063616c6c6572206973206e6f74206f7760008201527f6e6572206e6f7220617070726f76656420666f7220616c6c0000000000000000602082015250565b600061474d603883613d80565b9150614758826146f1565b604082019050919050565b6000602082019050818103600083015261477c81614740565b9050919050565b7f4552433732313a207472616e736665722063616c6c6572206973206e6f74206f60008201527f776e6572206e6f7220617070726f766564000000000000000000000000000000602082015250565b60006147df603183613d80565b91506147ea82614783565b604082019050919050565b6000602082019050818103600083015261480e816147d2565b9050919050565b7f455243373231456e756d657261626c653a206f776e657220696e646578206f7560008201527f74206f6620626f756e6473000000000000000000000000000000000000000000602082015250565b6000614871602b83613d80565b915061487c82614815565b604082019050919050565b600060208201905081810360008301526148a081614864565b9050919050565b7f4f776e61626c653a2063616c6c6572206973206e6f7420746865206f776e6572600082015250565b60006148dd602083613d80565b91506148e8826148a7565b602082019050919050565b6000602082019050818103600083015261490c816148d0565b9050919050565b7f4552433732314275726e61626c653a2063616c6c6572206973206e6f74206f7760008201527f6e6572206e6f7220617070726f76656400000000000000000000000000000000602082015250565b600061496f603083613d80565b915061497a82614913565b604082019050919050565b6000602082019050818103600083015261499e81614962565b9050919050565b7f455243373231456e756d657261626c653a20676c6f62616c20696e646578206f60008201527f7574206f6620626f756e64730000000000000000000000000000000000000000602082015250565b6000614a01602c83613d80565b9150614a0c826149a5565b604082019050919050565b60006020820190508181036000830152614a30816149f4565b9050919050565b7f4e487b7100000000000000000000000000000000000000000000000000000000600052603260045260246000fd5b7f4552433732313a206f776e657220717565727920666f72206e6f6e657869737460008201527f656e7420746f6b656e0000000000000000000000000000000000000000000000602082015250565b6000614ac2602983613d80565b9150614acd82614a66565b604082019050919050565b60006020820190508181036000830152614af181614ab5565b9050919050565b7f4552433732313a2062616c616e636520717565727920666f7220746865207a6560008201527f726f206164647265737300000000000000000000000000000000000000000000602082015250565b6000614b54602a83613d80565b9150614b5f82614af8565b604082019050919050565b60006020820190508181036000830152614b8381614b47565b9050919050565b7f566f7465733a20626c6f636b206e6f7420796574206d696e6564000000000000600082015250565b6000614bc0601a83613d80565b9150614bcb82614b8a565b602082019050919050565b60006020820190508181036000830152614bef81614bb3565b9050919050565b7f566f7465733a207369676e617475726520657870697265640000000000000000600082015250565b6000614c2c601883613d80565b9150614c3782614bf6565b602082019050919050565b60006020820190508181036000830152614c5b81614c1f565b9050919050565b6000608082019050614c776000830187613fe2565b614c846020830186613ec5565b614c916040830185613f5b565b614c9e6060830184613f5b565b95945050505050565b7f566f7465733a20696e76616c6964206e6f6e6365000000000000000000000000600082015250565b6000614cdd601483613d80565b9150614ce882614ca7565b602082019050919050565b60006020820190508181036000830152614d0c81614cd0565b9050919050565b7f4f776e61626c653a206e6577206f776e657220697320746865207a65726f206160008201527f6464726573730000000000000000000000000000000000000000000000000000602082015250565b6000614d6f602683613d80565b9150614d7a82614d13565b604082019050919050565b60006020820190508181036000830152614d9e81614d62565b9050919050565b7f4552433732313a206f70657261746f7220717565727920666f72206e6f6e657860008201527f697374656e7420746f6b656e0000000000000000000000000000000000000000602082015250565b6000614e01602c83613d80565b9150614e0c82614da5565b604082019050919050565b60006020820190508181036000830152614e3081614df4565b9050919050565b7f4552433732313a207472616e736665722066726f6d20696e636f72726563742060008201527f6f776e6572000000000000000000000000000000000000000000000000000000602082015250565b6000614e93602583613d80565b9150614e9e82614e37565b604082019050919050565b60006020820190508181036000830152614ec281614e86565b9050919050565b7f4552433732313a207472616e7366657220746f20746865207a65726f2061646460008201527f7265737300000000000000000000000000000000000000000000000000000000602082015250565b6000614f25602483613d80565b9150614f3082614ec9565b604082019050919050565b60006020820190508181036000830152614f5481614f18565b9050919050565b7f4e487b7100000000000000000000000000000000000000000000000000000000600052601160045260246000fd5b6000614f9582613e30565b9150614fa083613e30565b925082821015614fb357614fb2614f5b565b5b828203905092915050565b6000614fc982613e30565b9150614fd483613e30565b9250827fffffffffffffffffffffffffffffffffffffffffffffffffffffffffffffffff0382111561500957615008614f5b565b5b828201905092915050565b7f436865636b706f696e74733a20626c6f636b206e6f7420796574206d696e6564600082015250565b600061504a602083613d80565b915061505582615014565b602082019050919050565b600060208201905081810360008301526150798161503d565b9050919050565b7f5061757361626c653a206e6f7420706175736564000000000000000000000000600082015250565b60006150b6601483613d80565b91506150c182615080565b602082019050919050565b600060208201905081810360008301526150e5816150a9565b9050919050565b7f5061757361626c653a2070617573656400000000000000000000000000000000600082015250565b6000615122601083613d80565b915061512d826150ec565b602082019050919050565b6000602082019050818103600083015261515181615115565b9050919050565b7f4552433732313a20617070726f766520746f2063616c6c657200000000000000600082015250565b600061518e601983613d80565b915061519982615158565b602082019050919050565b600060208201905081810360008301526151bd81615181565b9050919050565b7f4552433732313a207472616e7366657220746f206e6f6e20455243373231526560008201527f63656976657220696d706c656d656e7465720000000000000000000000000000602082015250565b6000615220603283613d80565b915061522b826151c4565b604082019050919050565b6000602082019050818103600083015261524f81615213565b9050919050565b7f45524337323155524953746f726167653a2055524920717565727920666f722060008201527f6e6f6e6578697374656e7420746f6b656e000000000000000000000000000000602082015250565b60006152b2603183613d80565b91506152bd82615256565b604082019050919050565b600060208201905081810360008301526152e1816152a5565b9050919050565b600081905092915050565b60006152fe82613d75565b61530881856152e8565b9350615318818560208601613d91565b80840191505092915050565b600061533082856152f3565b915061533c82846152f3565b91508190509392505050565b7f45524337323155524953746f726167653a2055524920736574206f66206e6f6e60008201527f6578697374656e7420746f6b656e000000000000000000000000000000000000602082015250565b60006153a4602e83613d80565b91506153af82615348565b604082019050919050565b600060208201905081810360008301526153d381615397565b9050919050565b600060a0820190506153ef6000830188613fe2565b6153fc6020830187613fe2565b6154096040830186613fe2565b6154166060830185613f5b565b6154236080830184613ec5565b9695505050505050565b7f4e487b7100000000000000000000000000000000000000000000000000000000600052601260045260246000fd5b600061546782613e30565b915061547283613e30565b9250826154825761548161542d565b5b828204905092915050565b60006040820190506154a26000830185613f5b565b6154af6020830184613f5b565b9392505050565b600081519050919050565b600082825260208201905092915050565b60006154dd826154b6565b6154e781856154c1565b93506154f7818560208601613d91565b61550081613dc4565b840191505092915050565b60006080820190506155206000830187613ec5565b61552d6020830186613ec5565b61553a6040830185613f5b565b818103606083015261554c81846154d2565b905095945050505050565b60008151905061556681613ce6565b92915050565b60006020828403121561558257615581613cb0565b5b600061559084828501615557565b91505092915050565b7f1901000000000000000000000000000000000000000000000000000000000000600082015250565b60006155cf6002836152e8565b91506155da82615599565b600282019050919050565b6000819050919050565b6156006155fb82613fd8565b6155e5565b82525050565b6000615611826155c2565b915061561d82856155ef565b60208201915061562d82846155ef565b6020820191508190509392505050565b6156468161425d565b82525050565b60006080820190506156616000830187613fe2565b61566e602083018661563d565b61567b6040830185613fe2565b6156886060830184613fe2565b95945050505050565b7f4e487b7100000000000000000000000000000000000000000000000000000000600052602160045260246000fd5b7f45434453413a20696e76616c6964207369676e61747572650000000000000000600082015250565b60006156f6601883613d80565b9150615701826156c0565b602082019050919050565b60006020820190508181036000830152615725816156e9565b9050919050565b7f45434453413a20696e76616c6964207369676e6174757265206c656e67746800600082015250565b6000615762601f83613d80565b915061576d8261572c565b602082019050919050565b6000602082019050818103600083015261579181615755565b9050919050565b7f45434453413a20696e76616c6964207369676e6174757265202773272076616c60008201527f7565000000000000000000000000000000000000000000000000000000000000602082015250565b60006157f4602283613d80565b91506157ff82615798565b604082019050919050565b60006020820190508181036000830152615823816157e7565b9050919050565b7f45434453413a20696e76616c6964207369676e6174757265202776272076616c60008201527f7565000000000000000000000000000000000000000000000000000000000000602082015250565b6000615886602283613d80565b91506158918261582a565b604082019050919050565b600060208201905081810360008301526158b581615879565b9050919050565b7f4552433732314d657461646174613a2055524920717565727920666f72206e6f60008201527f6e6578697374656e7420746f6b656e0000000000000000000000000000000000602082015250565b6000615918602f83613d80565b9150615923826158bc565b604082019050919050565b600060208201905081810360008301526159478161590b565b9050919050565b600061595982613e30565b91507fffffffffffffffffffffffffffffffffffffffffffffffffffffffffffffffff82141561598c5761598b614f5b565b5b600182019050919050565b60006159a282613e30565b91506159ad83613e30565b9250826159bd576159bc61542d565b5b828206905092915050565b7f4552433732313a206d696e7420746f20746865207a65726f2061646472657373600082015250565b60006159fe602083613d80565b9150615a09826159c8565b602082019050919050565b60006020820190508181036000830152615a2d816159f1565b9050919050565b7f4552433732313a20746f6b656e20616c7265616479206d696e74656400000000600082015250565b6000615a6a601c83613d80565b9150615a7582615a34565b602082019050919050565b60006020820190508181036000830152615a9981615a5d565b9050919050565b7f4e487b7100000000000000000000000000000000000000000000000000000000600052603160045260246000fd5b7f53616665436173743a2076616c756520646f65736e27742066697420696e203260008201527f3234206269747300000000000000000000000000000000000000000000000000602082015250565b6000615b2b602783613d80565b9150615b3682615acf565b604082019050919050565b60006020820190508181036000830152615b5a81615b1e565b9050919050565b7f53616665436173743a2076616c756520646f65736e27742066697420696e203360008201527f3220626974730000000000000000000000000000000000000000000000000000602082015250565b6000615bbd602683613d80565b9150615bc882615b61565b604082019050919050565b60006020820190508181036000830152615bec81615bb0565b905091905056fea264697066735822122095005f9d1b50c07713ffedd74b6601cfa29a0597e220b00e790c71c9eb17030764736f6c63430008090033",
  "linkReferences": {},
  "deployedLinkReferences": {}
}