{
  "_format": "hh-sol-artifact-1",
  "contractName": "Certificate",
  "sourceName": "contracts/Certificate.sol",
  "abi": [
    {
      "inputs": [],
      "stateMutability": "nonpayable",
      "type": "constructor"
    },
    {
      "anonymous": false,
      "inputs": [
        {
          "indexed": true,
          "internalType": "address",
          "name": "owner",
          "type": "address"
        },
        {
          "indexed": true,
          "internalType": "address",
          "name": "approved",
          "type": "address"
        },
        {
          "indexed": true,
          "internalType": "uint256",
          "name": "tokenId",
          "type": "uint256"
        }
      ],
      "name": "Approval",
      "type": "event"
    },
    {
      "anonymous": false,
      "inputs": [
        {
          "indexed": true,
          "internalType": "address",
          "name": "owner",
          "type": "address"
        },
        {
          "indexed": true,
          "internalType": "address",
          "name": "operator",
          "type": "address"
        },
        {
          "indexed": false,
          "internalType": "bool",
          "name": "approved",
          "type": "bool"
        }
      ],
      "name": "ApprovalForAll",
      "type": "event"
    },
    {
      "anonymous": false,
      "inputs": [
        {
          "indexed": true,
          "internalType": "address",
          "name": "delegator",
          "type": "address"
        },
        {
          "indexed": true,
          "internalType": "address",
          "name": "fromDelegate",
          "type": "address"
        },
        {
          "indexed": true,
          "internalType": "address",
          "name": "toDelegate",
          "type": "address"
        }
      ],
      "name": "DelegateChanged",
      "type": "event"
    },
    {
      "anonymous": false,
      "inputs": [
        {
          "indexed": true,
          "internalType": "address",
          "name": "delegate",
          "type": "address"
        },
        {
          "indexed": false,
          "internalType": "uint256",
          "name": "previousBalance",
          "type": "uint256"
        },
        {
          "indexed": false,
          "internalType": "uint256",
          "name": "newBalance",
          "type": "uint256"
        }
      ],
      "name": "DelegateVotesChanged",
      "type": "event"
    },
    {
      "anonymous": false,
      "inputs": [
        {
          "indexed": true,
          "internalType": "address",
          "name": "previousOwner",
          "type": "address"
        },
        {
          "indexed": true,
          "internalType": "address",
          "name": "newOwner",
          "type": "address"
        }
      ],
      "name": "OwnershipTransferred",
      "type": "event"
    },
    {
      "anonymous": false,
      "inputs": [
        {
          "indexed": false,
          "internalType": "address",
          "name": "account",
          "type": "address"
        }
      ],
      "name": "Paused",
      "type": "event"
    },
    {
      "anonymous": false,
      "inputs": [
        {
          "indexed": true,
          "internalType": "address",
          "name": "from",
          "type": "address"
        },
        {
          "indexed": true,
          "internalType": "address",
          "name": "to",
          "type": "address"
        },
        {
          "indexed": true,
          "internalType": "uint256",
          "name": "tokenId",
          "type": "uint256"
        }
      ],
      "name": "Transfer",
      "type": "event"
    },
    {
      "anonymous": false,
      "inputs": [
        {
          "indexed": false,
          "internalType": "address",
          "name": "account",
          "type": "address"
        }
      ],
      "name": "Unpaused",
      "type": "event"
    },
    {
      "inputs": [],
      "name": "DOMAIN_SEPARATOR",
      "outputs": [
        {
          "internalType": "bytes32",
          "name": "",
          "type": "bytes32"
        }
      ],
      "stateMutability": "view",
      "type": "function"
    },
    {
      "inputs": [
        {
          "internalType": "address",
          "name": "to",
          "type": "address"
        },
        {
          "internalType": "uint256",
          "name": "tokenId",
          "type": "uint256"
        }
      ],
      "name": "approve",
      "outputs": [],
      "stateMutability": "nonpayable",
      "type": "function"
    },
    {
      "inputs": [
        {
          "internalType": "address",
          "name": "owner",
          "type": "address"
        }
      ],
      "name": "balanceOf",
      "outputs": [
        {
          "internalType": "uint256",
          "name": "",
          "type": "uint256"
        }
      ],
      "stateMutability": "view",
      "type": "function"
    },
    {
      "inputs": [
        {
          "internalType": "uint256",
          "name": "tokenId",
          "type": "uint256"
        }
      ],
      "name": "burn",
      "outputs": [],
      "stateMutability": "nonpayable",
      "type": "function"
    },
    {
      "inputs": [
        {
          "internalType": "address",
          "name": "delegatee",
          "type": "address"
        }
      ],
      "name": "delegate",
      "outputs": [],
      "stateMutability": "nonpayable",
      "type": "function"
    },
    {
      "inputs": [
        {
          "internalType": "address",
          "name": "delegatee",
          "type": "address"
        },
        {
          "internalType": "uint256",
          "name": "nonce",
          "type": "uint256"
        },
        {
          "internalType": "uint256",
          "name": "expiry",
          "type": "uint256"
        },
        {
          "internalType": "uint8",
          "name": "v",
          "type": "uint8"
        },
        {
          "internalType": "bytes32",
          "name": "r",
          "type": "bytes32"
        },
        {
          "internalType": "bytes32",
          "name": "s",
          "type": "bytes32"
        }
      ],
      "name": "delegateBySig",
      "outputs": [],
      "stateMutability": "nonpayable",
      "type": "function"
    },
    {
      "inputs": [
        {
          "internalType": "address",
          "name": "account",
          "type": "address"
        }
      ],
      "name": "delegates",
      "outputs": [
        {
          "internalType": "address",
          "name": "",
          "type": "address"
        }
      ],
      "stateMutability": "view",
      "type": "function"
    },
    {
      "inputs": [
        {
          "internalType": "address",
          "name": "_user",
          "type": "address"
        }
      ],
      "name": "getAllCertificates",
      "outputs": [
        {
          "internalType": "uint256[]",
          "name": "",
          "type": "uint256[]"
        }
      ],
      "stateMutability": "view",
      "type": "function"
    },
    {
      "inputs": [
        {
          "internalType": "uint256",
          "name": "tokenId",
          "type": "uint256"
        }
      ],
      "name": "getApproved",
      "outputs": [
        {
          "internalType": "address",
          "name": "",
          "type": "address"
        }
      ],
      "stateMutability": "view",
      "type": "function"
    },
    {
      "inputs": [
        {
          "internalType": "uint256",
          "name": "blockNumber",
          "type": "uint256"
        }
      ],
      "name": "getPastTotalSupply",
      "outputs": [
        {
          "internalType": "uint256",
          "name": "",
          "type": "uint256"
        }
      ],
      "stateMutability": "view",
      "type": "function"
    },
    {
      "inputs": [
        {
          "internalType": "address",
          "name": "account",
          "type": "address"
        },
        {
          "internalType": "uint256",
          "name": "blockNumber",
          "type": "uint256"
        }
      ],
      "name": "getPastVotes",
      "outputs": [
        {
          "internalType": "uint256",
          "name": "",
          "type": "uint256"
        }
      ],
      "stateMutability": "view",
      "type": "function"
    },
    {
      "inputs": [
        {
          "internalType": "address",
          "name": "account",
          "type": "address"
        }
      ],
      "name": "getVotes",
      "outputs": [
        {
          "internalType": "uint256",
          "name": "",
          "type": "uint256"
        }
      ],
      "stateMutability": "view",
      "type": "function"
    },
    {
      "inputs": [
        {
          "internalType": "address",
          "name": "owner",
          "type": "address"
        },
        {
          "internalType": "address",
          "name": "operator",
          "type": "address"
        }
      ],
      "name": "isApprovedForAll",
      "outputs": [
        {
          "internalType": "bool",
          "name": "",
          "type": "bool"
        }
      ],
      "stateMutability": "view",
      "type": "function"
    },
    {
      "inputs": [],
      "name": "name",
      "outputs": [
        {
          "internalType": "string",
          "name": "",
          "type": "string"
        }
      ],
      "stateMutability": "view",
      "type": "function"
    },
    {
      "inputs": [
        {
          "internalType": "address",
          "name": "owner",
          "type": "address"
        }
      ],
      "name": "nonces",
      "outputs": [
        {
          "internalType": "uint256",
          "name": "",
          "type": "uint256"
        }
      ],
      "stateMutability": "view",
      "type": "function"
    },
    {
      "inputs": [],
      "name": "owner",
      "outputs": [
        {
          "internalType": "address",
          "name": "",
          "type": "address"
        }
      ],
      "stateMutability": "view",
      "type": "function"
    },
    {
      "inputs": [
        {
          "internalType": "uint256",
          "name": "tokenId",
          "type": "uint256"
        }
      ],
      "name": "ownerOf",
      "outputs": [
        {
          "internalType": "address",
          "name": "",
          "type": "address"
        }
      ],
      "stateMutability": "view",
      "type": "function"
    },
    {
      "inputs": [],
      "name": "pause",
      "outputs": [],
      "stateMutability": "nonpayable",
      "type": "function"
    },
    {
      "inputs": [],
      "name": "paused",
      "outputs": [
        {
          "internalType": "bool",
          "name": "",
          "type": "bool"
        }
      ],
      "stateMutability": "view",
      "type": "function"
    },
    {
      "inputs": [],
      "name": "renounceOwnership",
      "outputs": [],
      "stateMutability": "nonpayable",
      "type": "function"
    },
    {
      "inputs": [
        {
          "internalType": "address",
          "name": "to",
          "type": "address"
        },
        {
          "internalType": "string",
          "name": "uri",
          "type": "string"
        }
      ],
      "name": "safeMint",
      "outputs": [],
      "stateMutability": "nonpayable",
      "type": "function"
    },
    {
      "inputs": [
        {
          "internalType": "address",
          "name": "from",
          "type": "address"
        },
        {
          "internalType": "address",
          "name": "to",
          "type": "address"
        },
        {
          "internalType": "uint256",
          "name": "tokenId",
          "type": "uint256"
        }
      ],
      "name": "safeTransferFrom",
      "outputs": [],
      "stateMutability": "nonpayable",
      "type": "function"
    },
    {
      "inputs": [
        {
          "internalType": "address",
          "name": "from",
          "type": "address"
        },
        {
          "internalType": "address",
          "name": "to",
          "type": "address"
        },
        {
          "internalType": "uint256",
          "name": "tokenId",
          "type": "uint256"
        },
        {
          "internalType": "bytes",
          "name": "_data",
          "type": "bytes"
        }
      ],
      "name": "safeTransferFrom",
      "outputs": [],
      "stateMutability": "nonpayable",
      "type": "function"
    },
    {
      "inputs": [
        {
          "internalType": "address",
          "name": "operator",
          "type": "address"
        },
        {
          "internalType": "bool",
          "name": "approved",
          "type": "bool"
        }
      ],
      "name": "setApprovalForAll",
      "outputs": [],
      "stateMutability": "nonpayable",
      "type": "function"
    },
    {
      "inputs": [
        {
          "internalType": "bytes4",
          "name": "interfaceId",
          "type": "bytes4"
        }
      ],
      "name": "supportsInterface",
      "outputs": [
        {
          "internalType": "bool",
          "name": "",
          "type": "bool"
        }
      ],
      "stateMutability": "view",
      "type": "function"
    },
    {
      "inputs": [],
      "name": "symbol",
      "outputs": [
        {
          "internalType": "string",
          "name": "",
          "type": "string"
        }
      ],
      "stateMutability": "view",
      "type": "function"
    },
    {
      "inputs": [
        {
          "internalType": "uint256",
          "name": "index",
          "type": "uint256"
        }
      ],
      "name": "tokenByIndex",
      "outputs": [
        {
          "internalType": "uint256",
          "name": "",
          "type": "uint256"
        }
      ],
      "stateMutability": "view",
      "type": "function"
    },
    {
      "inputs": [
        {
          "internalType": "address",
          "name": "owner",
          "type": "address"
        },
        {
          "internalType": "uint256",
          "name": "index",
          "type": "uint256"
        }
      ],
      "name": "tokenOfOwnerByIndex",
      "outputs": [
        {
          "internalType": "uint256",
          "name": "",
          "type": "uint256"
        }
      ],
      "stateMutability": "view",
      "type": "function"
    },
    {
      "inputs": [
        {
          "internalType": "uint256",
          "name": "tokenId",
          "type": "uint256"
        }
      ],
      "name": "tokenURI",
      "outputs": [
        {
          "internalType": "string",
          "name": "",
          "type": "string"
        }
      ],
      "stateMutability": "view",
      "type": "function"
    },
    {
      "inputs": [],
      "name": "totalSupply",
      "outputs": [
        {
          "internalType": "uint256",
          "name": "",
          "type": "uint256"
        }
      ],
      "stateMutability": "view",
      "type": "function"
    },
    {
      "inputs": [
        {
          "internalType": "address",
          "name": "from",
          "type": "address"
        },
        {
          "internalType": "address",
          "name": "to",
          "type": "address"
        },
        {
          "internalType": "uint256",
          "name": "tokenId",
          "type": "uint256"
        }
      ],
      "name": "transferFrom",
      "outputs": [],
      "stateMutability": "nonpayable",
      "type": "function"
    },
    {
      "inputs": [
        {
          "internalType": "address",
          "name": "newOwner",
          "type": "address"
        }
      ],
      "name": "transferOwnership",
      "outputs": [],
      "stateMutability": "nonpayable",
      "type": "function"
    },
    {
      "inputs": [],
      "name": "unpause",
      "outputs": [],
      "stateMutability": "nonpayable",
      "type": "function"
    }
  ],
  "bytecode": "0x6101406040523480156200001257600080fd5b506040518060400160405280600881526020017f57617272616e74790000000000000000000000000000000000000000000000008152506040518060400160405280600181526020017f31000000000000000000000000000000000000000000000000000000000000008152506040518060400160405280600881526020017f57617272616e74790000000000000000000000000000000000000000000000008152506040518060400160405280600481526020017f43415244000000000000000000000000000000000000000000000000000000008152508160009080519060200190620001039291906200031c565b5080600190805190602001906200011c9291906200031c565b5050506000600b60006101000a81548160ff0219169083151502179055506200015a6200014e6200021260201b60201c565b6200021a60201b60201c565b60008280519060200120905060008280519060200120905060007f8b73c3c69bb8fe3d512ecc4cf759cc79239f7b179b0ffacaa9a75d522b39400f90508260e081815250508161010081815250504660a08181525050620001c3818484620002e060201b60201c565b608081815250503073ffffffffffffffffffffffffffffffffffffffff1660c08173ffffffffffffffffffffffffffffffffffffffff1681525050806101208181525050505050505062000509565b600033905090565b6000600b60019054906101000a900473ffffffffffffffffffffffffffffffffffffffff16905081600b60016101000a81548173ffffffffffffffffffffffffffffffffffffffff021916908373ffffffffffffffffffffffffffffffffffffffff1602179055508173ffffffffffffffffffffffffffffffffffffffff168173ffffffffffffffffffffffffffffffffffffffff167f8be0079c531659141344cd1fd0a4f28419497f9722a3daafe3b4186f6b6457e060405160405180910390a35050565b60008383834630604051602001620002fd95949392919062000447565b6040516020818303038152906040528051906020012090509392505050565b8280546200032a90620004d3565b90600052602060002090601f0160209004810192826200034e57600085556200039a565b82601f106200036957805160ff19168380011785556200039a565b828001600101855582156200039a579182015b82811115620003995782518255916020019190600101906200037c565b5b509050620003a99190620003ad565b5090565b5b80821115620003c8576000816000905550600101620003ae565b5090565b6000819050919050565b620003e181620003cc565b82525050565b6000819050919050565b620003fc81620003e7565b82525050565b600073ffffffffffffffffffffffffffffffffffffffff82169050919050565b60006200042f8262000402565b9050919050565b620004418162000422565b82525050565b600060a0820190506200045e6000830188620003d6565b6200046d6020830187620003d6565b6200047c6040830186620003d6565b6200048b6060830185620003f1565b6200049a608083018462000436565b9695505050505050565b7f4e487b7100000000000000000000000000000000000000000000000000000000600052602260045260246000fd5b60006002820490506001821680620004ec57607f821691505b60208210811415620005035762000502620004a4565b5b50919050565b60805160a05160c05160e0516101005161012051615bad620005596000396000611a6901526000611aab01526000611a8a015260006119bf01526000611a1501526000611a3e0152615bad6000f3fe608060405234801561001057600080fd5b50600436106101fb5760003560e01c80636352211e1161011a5780639ab24eb0116100ad578063c87b56dd1161007c578063c87b56dd146105c2578063d204c45e146105f2578063e985e9c51461060e578063ec1fe6111461063e578063f2fde38b1461066e576101fb565b80639ab24eb01461053e578063a22cb4651461056e578063b88d4fde1461058a578063c3cda520146105a6576101fb565b80638456cb59116100e95780638456cb59146104c85780638da5cb5b146104d25780638e539e8c146104f057806395d89b4114610520576101fb565b80636352211e1461042e57806370a082311461045e578063715018a61461048e5780637ecebe0014610498576101fb565b80633a46b1a8116101925780634f6ccce7116101615780634f6ccce714610394578063587cde1e146103c45780635c19a95c146103f45780635c975abb14610410576101fb565b80633a46b1a8146103225780633f4ba83a1461035257806342842e0e1461035c57806342966c6814610378576101fb565b806318160ddd116101ce57806318160ddd1461029a57806323b872dd146102b85780632f745c59146102d45780633644e51514610304576101fb565b806301ffc9a71461020057806306fdde0314610230578063081812fc1461024e578063095ea7b31461027e575b600080fd5b61021a60048036038101906102159190613c96565b61068a565b6040516102279190613cde565b60405180910390f35b61023861069c565b6040516102459190613d92565b60405180910390f35b61026860048036038101906102639190613dea565b61072e565b6040516102759190613e58565b60405180910390f35b61029860048036038101906102939190613e9f565b6107b3565b005b6102a26108cb565b6040516102af9190613eee565b60405180910390f35b6102d260048036038101906102cd9190613f09565b6108d8565b005b6102ee60048036038101906102e99190613e9f565b610938565b6040516102fb9190613eee565b60405180910390f35b61030c6109dd565b6040516103199190613f75565b60405180910390f35b61033c60048036038101906103379190613e9f565b6109ec565b6040516103499190613eee565b60405180910390f35b61035a610a47565b005b61037660048036038101906103719190613f09565b610acd565b005b610392600480360381019061038d9190613dea565b610aed565b005b6103ae60048036038101906103a99190613dea565b610b49565b6040516103bb9190613eee565b60405180910390f35b6103de60048036038101906103d99190613f90565b610bba565b6040516103eb9190613e58565b60405180910390f35b61040e60048036038101906104099190613f90565b610c23565b005b610418610c3d565b6040516104259190613cde565b60405180910390f35b61044860048036038101906104439190613dea565b610c54565b6040516104559190613e58565b60405180910390f35b61047860048036038101906104739190613f90565b610d06565b6040516104859190613eee565b60405180910390f35b610496610dbe565b005b6104b260048036038101906104ad9190613f90565b610e46565b6040516104bf9190613eee565b60405180910390f35b6104d0610e96565b005b6104da610f1c565b6040516104e79190613e58565b60405180910390f35b61050a60048036038101906105059190613dea565b610f46565b6040516105179190613eee565b60405180910390f35b610528610fa5565b6040516105359190613d92565b60405180910390f35b61055860048036038101906105539190613f90565b611037565b6040516105659190613eee565b60405180910390f35b61058860048036038101906105839190613fe9565b611087565b005b6105a4600480360381019061059f919061415e565b61109d565b005b6105c060048036038101906105bb9190614246565b6110ff565b005b6105dc60048036038101906105d79190613dea565b611203565b6040516105e99190613d92565b60405180910390f35b61060c60048036038101906106079190614374565b611215565b005b610628600480360381019061062391906143d0565b6112ac565b6040516106359190613cde565b60405180910390f35b61065860048036038101906106539190613f90565b611340565b60405161066591906144ce565b60405180910390f35b61068860048036038101906106839190613f90565b6113d7565b005b6000610695826114cf565b9050919050565b6060600080546106ab9061451f565b80601f01602080910402602001604051908101604052809291908181526020018280546106d79061451f565b80156107245780601f106106f957610100808354040283529160200191610724565b820191906000526020600020905b81548152906001019060200180831161070757829003601f168201915b5050505050905090565b600061073982611549565b610778576040517f08c379a000000000000000000000000000000000000000000000000000000000815260040161076f906145c3565b60405180910390fd5b6004600083815260200190815260200160002060009054906101000a900473ffffffffffffffffffffffffffffffffffffffff169050919050565b60006107be82610c54565b90508073ffffffffffffffffffffffffffffffffffffffff168373ffffffffffffffffffffffffffffffffffffffff16141561082f576040517f08c379a000000000000000000000000000000000000000000000000000000000815260040161082690614655565b60405180910390fd5b8073ffffffffffffffffffffffffffffffffffffffff1661084e6115b5565b73ffffffffffffffffffffffffffffffffffffffff16148061087d575061087c816108776115b5565b6112ac565b5b6108bc576040517f08c379a00000000000000000000000000000000000000000000000000000000081526004016108b3906146e7565b60405180910390fd5b6108c683836115bd565b505050565b6000600880549050905090565b6108e96108e36115b5565b82611676565b610928576040517f08c379a000000000000000000000000000000000000000000000000000000000815260040161091f90614779565b60405180910390fd5b610933838383611754565b505050565b600061094383610d06565b8210610984576040517f08c379a000000000000000000000000000000000000000000000000000000000815260040161097b9061480b565b60405180910390fd5b600660008473ffffffffffffffffffffffffffffffffffffffff1673ffffffffffffffffffffffffffffffffffffffff168152602001908152602001600020600083815260200190815260200160002054905092915050565b60006109e76119bb565b905090565b6000610a3f82600d60008673ffffffffffffffffffffffffffffffffffffffff1673ffffffffffffffffffffffffffffffffffffffff168152602001908152602001600020611ad590919063ffffffff16565b905092915050565b610a4f6115b5565b73ffffffffffffffffffffffffffffffffffffffff16610a6d610f1c565b73ffffffffffffffffffffffffffffffffffffffff1614610ac3576040517f08c379a0000000000000000000000000000000000000000000000000000000008152600401610aba90614877565b60405180910390fd5b610acb611c2d565b565b610ae88383836040518060200160405280600081525061109d565b505050565b610afe610af86115b5565b82611676565b610b3d576040517f08c379a0000000000000000000000000000000000000000000000000000000008152600401610b3490614909565b60405180910390fd5b610b4681611ccf565b50565b6000610b536108cb565b8210610b94576040517f08c379a0000000000000000000000000000000000000000000000000000000008152600401610b8b9061499b565b60405180910390fd5b60088281548110610ba857610ba76149bb565b5b90600052602060002001549050919050565b6000600c60008373ffffffffffffffffffffffffffffffffffffffff1673ffffffffffffffffffffffffffffffffffffffff16815260200190815260200160002060009054906101000a900473ffffffffffffffffffffffffffffffffffffffff169050919050565b6000610c2d6115b5565b9050610c398183611cdb565b5050565b6000600b60009054906101000a900460ff16905090565b6000806002600084815260200190815260200160002060009054906101000a900473ffffffffffffffffffffffffffffffffffffffff169050600073ffffffffffffffffffffffffffffffffffffffff168173ffffffffffffffffffffffffffffffffffffffff161415610cfd576040517f08c379a0000000000000000000000000000000000000000000000000000000008152600401610cf490614a5c565b60405180910390fd5b80915050919050565b60008073ffffffffffffffffffffffffffffffffffffffff168273ffffffffffffffffffffffffffffffffffffffff161415610d77576040517f08c379a0000000000000000000000000000000000000000000000000000000008152600401610d6e90614aee565b60405180910390fd5b600360008373ffffffffffffffffffffffffffffffffffffffff1673ffffffffffffffffffffffffffffffffffffffff168152602001908152602001600020549050919050565b610dc66115b5565b73ffffffffffffffffffffffffffffffffffffffff16610de4610f1c565b73ffffffffffffffffffffffffffffffffffffffff1614610e3a576040517f08c379a0000000000000000000000000000000000000000000000000000000008152600401610e3190614877565b60405180910390fd5b610e446000611def565b565b6000610e8f600f60008473ffffffffffffffffffffffffffffffffffffffff1673ffffffffffffffffffffffffffffffffffffffff168152602001908152602001600020611eb5565b9050919050565b610e9e6115b5565b73ffffffffffffffffffffffffffffffffffffffff16610ebc610f1c565b73ffffffffffffffffffffffffffffffffffffffff1614610f12576040517f08c379a0000000000000000000000000000000000000000000000000000000008152600401610f0990614877565b60405180910390fd5b610f1a611ec3565b565b6000600b60019054906101000a900473ffffffffffffffffffffffffffffffffffffffff16905090565b6000438210610f8a576040517f08c379a0000000000000000000000000000000000000000000000000000000008152600401610f8190614b5a565b60405180910390fd5b610f9e82600e611ad590919063ffffffff16565b9050919050565b606060018054610fb49061451f565b80601f0160208091040260200160405190810160405280929190818152602001828054610fe09061451f565b801561102d5780601f106110025761010080835404028352916020019161102d565b820191906000526020600020905b81548152906001019060200180831161101057829003601f168201915b5050505050905090565b6000611080600d60008473ffffffffffffffffffffffffffffffffffffffff1673ffffffffffffffffffffffffffffffffffffffff168152602001908152602001600020611f66565b9050919050565b6110996110926115b5565b8383612001565b5050565b6110ae6110a86115b5565b83611676565b6110ed576040517f08c379a00000000000000000000000000000000000000000000000000000000081526004016110e490614779565b60405180910390fd5b6110f98484848461216e565b50505050565b83421115611142576040517f08c379a000000000000000000000000000000000000000000000000000000000815260040161113990614bc6565b60405180910390fd5b60006111a461119c7fe48329057bfd03d55e49b547132e39cffd9c1820ad7b9d4c5307691425d15adf8989896040516020016111819493929190614be6565b604051602081830303815290604052805190602001206121ca565b8585856121e4565b90506111af8161220f565b86146111f0576040517f08c379a00000000000000000000000000000000000000000000000000000000081526004016111e790614c77565b60405180910390fd5b6111fa8188611cdb565b50505050505050565b606061120e8261226d565b9050919050565b60006112216010611eb5565b9050601160008473ffffffffffffffffffffffffffffffffffffffff1673ffffffffffffffffffffffffffffffffffffffff16815260200190815260200160002081908060018154018082558091505060019003906000526020600020016000909190919091505561129360106123bf565b61129d83826123d5565b6112a781836123f3565b505050565b6000600560008473ffffffffffffffffffffffffffffffffffffffff1673ffffffffffffffffffffffffffffffffffffffff16815260200190815260200160002060008373ffffffffffffffffffffffffffffffffffffffff1673ffffffffffffffffffffffffffffffffffffffff16815260200190815260200160002060009054906101000a900460ff16905092915050565b6060601160008373ffffffffffffffffffffffffffffffffffffffff1673ffffffffffffffffffffffffffffffffffffffff1681526020019081526020016000208054806020026020016040519081016040528092919081815260200182805480156113cb57602002820191906000526020600020905b8154815260200190600101908083116113b7575b50505050509050919050565b6113df6115b5565b73ffffffffffffffffffffffffffffffffffffffff166113fd610f1c565b73ffffffffffffffffffffffffffffffffffffffff1614611453576040517f08c379a000000000000000000000000000000000000000000000000000000000815260040161144a90614877565b60405180910390fd5b600073ffffffffffffffffffffffffffffffffffffffff168173ffffffffffffffffffffffffffffffffffffffff1614156114c3576040517f08c379a00000000000000000000000000000000000000000000000000000000081526004016114ba90614d09565b60405180910390fd5b6114cc81611def565b50565b60007f780e9d63000000000000000000000000000000000000000000000000000000007bffffffffffffffffffffffffffffffffffffffffffffffffffffffff1916827bffffffffffffffffffffffffffffffffffffffffffffffffffffffff19161480611542575061154182612467565b5b9050919050565b60008073ffffffffffffffffffffffffffffffffffffffff166002600084815260200190815260200160002060009054906101000a900473ffffffffffffffffffffffffffffffffffffffff1673ffffffffffffffffffffffffffffffffffffffff1614159050919050565b600033905090565b816004600083815260200190815260200160002060006101000a81548173ffffffffffffffffffffffffffffffffffffffff021916908373ffffffffffffffffffffffffffffffffffffffff160217905550808273ffffffffffffffffffffffffffffffffffffffff1661163083610c54565b73ffffffffffffffffffffffffffffffffffffffff167f8c5be1e5ebec7d5bd14f71427d1e84f3dd0314c0f7b2291e5b200ac8c7c3b92560405160405180910390a45050565b600061168182611549565b6116c0576040517f08c379a00000000000000000000000000000000000000000000000000000000081526004016116b790614d9b565b60405180910390fd5b60006116cb83610c54565b90508073ffffffffffffffffffffffffffffffffffffffff168473ffffffffffffffffffffffffffffffffffffffff16148061170d575061170c81856112ac565b5b8061174b57508373ffffffffffffffffffffffffffffffffffffffff166117338461072e565b73ffffffffffffffffffffffffffffffffffffffff16145b91505092915050565b8273ffffffffffffffffffffffffffffffffffffffff1661177482610c54565b73ffffffffffffffffffffffffffffffffffffffff16146117ca576040517f08c379a00000000000000000000000000000000000000000000000000000000081526004016117c190614e2d565b60405180910390fd5b600073ffffffffffffffffffffffffffffffffffffffff168273ffffffffffffffffffffffffffffffffffffffff16141561183a576040517f08c379a000000000000000000000000000000000000000000000000000000000815260040161183190614ebf565b60405180910390fd5b611845838383612549565b6118506000826115bd565b6001600360008573ffffffffffffffffffffffffffffffffffffffff1673ffffffffffffffffffffffffffffffffffffffff16815260200190815260200160002060008282546118a09190614f0e565b925050819055506001600360008473ffffffffffffffffffffffffffffffffffffffff1673ffffffffffffffffffffffffffffffffffffffff16815260200190815260200160002060008282546118f79190614f42565b92505081905550816002600083815260200190815260200160002060006101000a81548173ffffffffffffffffffffffffffffffffffffffff021916908373ffffffffffffffffffffffffffffffffffffffff160217905550808273ffffffffffffffffffffffffffffffffffffffff168473ffffffffffffffffffffffffffffffffffffffff167fddf252ad1be2c89b69c2b068fc378daa952ba7f163c4a11628f55a4df523b3ef60405160405180910390a46119b68383836125a1565b505050565b60007f000000000000000000000000000000000000000000000000000000000000000073ffffffffffffffffffffffffffffffffffffffff163073ffffffffffffffffffffffffffffffffffffffff16148015611a3757507f000000000000000000000000000000000000000000000000000000000000000046145b15611a64577f00000000000000000000000000000000000000000000000000000000000000009050611ad2565b611acf7f00000000000000000000000000000000000000000000000000000000000000007f00000000000000000000000000000000000000000000000000000000000000007f00000000000000000000000000000000000000000000000000000000000000006125b1565b90505b90565b6000438210611b19576040517f08c379a0000000000000000000000000000000000000000000000000000000008152600401611b1090614fe4565b60405180910390fd5b60008360000180549050905060005b81811015611b9d576000611b3c82846125eb565b905084866000018281548110611b5557611b546149bb565b5b9060005260206000200160000160009054906101000a900463ffffffff1663ffffffff161115611b8757809250611b97565b600181611b949190614f42565b91505b50611b28565b60008214611c025784600001600183611bb69190614f0e565b81548110611bc757611bc66149bb565b5b9060005260206000200160000160049054906101000a90047bffffffffffffffffffffffffffffffffffffffffffffffffffffffff16611c05565b60005b7bffffffffffffffffffffffffffffffffffffffffffffffffffffffff169250505092915050565b611c35610c3d565b611c74576040517f08c379a0000000000000000000000000000000000000000000000000000000008152600401611c6b90615050565b60405180910390fd5b6000600b60006101000a81548160ff0219169083151502179055507f5db9ee0a495bf2e6ff9c91a7834c1ba4fdd244a5e8aa4e537bd38aeae4b073aa611cb86115b5565b604051611cc59190613e58565b60405180910390a1565b611cd881612611565b50565b6000611ce683610bba565b905081600c60008573ffffffffffffffffffffffffffffffffffffffff1673ffffffffffffffffffffffffffffffffffffffff16815260200190815260200160002060006101000a81548173ffffffffffffffffffffffffffffffffffffffff021916908373ffffffffffffffffffffffffffffffffffffffff1602179055508173ffffffffffffffffffffffffffffffffffffffff168173ffffffffffffffffffffffffffffffffffffffff168473ffffffffffffffffffffffffffffffffffffffff167f3134e8a2e6d97e929a7e54011ea5485d7d196dd5f0ba4d4ef95803e8e3fc257f60405160405180910390a4611dea8183611de586612664565b612676565b505050565b6000600b60019054906101000a900473ffffffffffffffffffffffffffffffffffffffff16905081600b60016101000a81548173ffffffffffffffffffffffffffffffffffffffff021916908373ffffffffffffffffffffffffffffffffffffffff1602179055508173ffffffffffffffffffffffffffffffffffffffff168173ffffffffffffffffffffffffffffffffffffffff167f8be0079c531659141344cd1fd0a4f28419497f9722a3daafe3b4186f6b6457e060405160405180910390a35050565b600081600001549050919050565b611ecb610c3d565b15611f0b576040517f08c379a0000000000000000000000000000000000000000000000000000000008152600401611f02906150bc565b60405180910390fd5b6001600b60006101000a81548160ff0219169083151502179055507f62e78cea01bee320cd4e420270b5ea74000d11b0c9f74754ebdbfc544b05a258611f4f6115b5565b604051611f5c9190613e58565b60405180910390a1565b6000808260000180549050905060008114611fd85782600001600182611f8c9190614f0e565b81548110611f9d57611f9c6149bb565b5b9060005260206000200160000160049054906101000a90047bffffffffffffffffffffffffffffffffffffffffffffffffffffffff16611fdb565b60005b7bffffffffffffffffffffffffffffffffffffffffffffffffffffffff16915050919050565b8173ffffffffffffffffffffffffffffffffffffffff168373ffffffffffffffffffffffffffffffffffffffff161415612070576040517f08c379a000000000000000000000000000000000000000000000000000000000815260040161206790615128565b60405180910390fd5b80600560008573ffffffffffffffffffffffffffffffffffffffff1673ffffffffffffffffffffffffffffffffffffffff16815260200190815260200160002060008473ffffffffffffffffffffffffffffffffffffffff1673ffffffffffffffffffffffffffffffffffffffff16815260200190815260200160002060006101000a81548160ff0219169083151502179055508173ffffffffffffffffffffffffffffffffffffffff168373ffffffffffffffffffffffffffffffffffffffff167f17307eab39ab6107e8899845ad3d59bd9653f200f220920489ca2b5937696c31836040516121619190613cde565b60405180910390a3505050565b612179848484611754565b61218584848484612883565b6121c4576040517f08c379a00000000000000000000000000000000000000000000000000000000081526004016121bb906151ba565b60405180910390fd5b50505050565b60006121dd6121d76119bb565b83612a1a565b9050919050565b60008060006121f587878787612a4d565b9150915061220281612b5a565b8192505050949350505050565b600080600f60008473ffffffffffffffffffffffffffffffffffffffff1673ffffffffffffffffffffffffffffffffffffffff168152602001908152602001600020905061225c81611eb5565b9150612267816123bf565b50919050565b606061227882611549565b6122b7576040517f08c379a00000000000000000000000000000000000000000000000000000000081526004016122ae9061524c565b60405180910390fd5b6000600a600084815260200190815260200160002080546122d79061451f565b80601f01602080910402602001604051908101604052809291908181526020018280546123039061451f565b80156123505780601f1061232557610100808354040283529160200191612350565b820191906000526020600020905b81548152906001019060200180831161233357829003601f168201915b505050505090506000612361612d2f565b90506000815114156123775781925050506123ba565b6000825111156123ac5780826040516020016123949291906152a8565b604051602081830303815290604052925050506123ba565b6123b584612d46565b925050505b919050565b6001816000016000828254019250508190555050565b6123ef828260405180602001604052806000815250612ded565b5050565b6123fc82611549565b61243b576040517f08c379a00000000000000000000000000000000000000000000000000000000081526004016124329061533e565b60405180910390fd5b80600a60008481526020019081526020016000209080519060200190612462929190613b47565b505050565b60007f80ac58cd000000000000000000000000000000000000000000000000000000007bffffffffffffffffffffffffffffffffffffffffffffffffffffffff1916827bffffffffffffffffffffffffffffffffffffffffffffffffffffffff1916148061253257507f5b5e139f000000000000000000000000000000000000000000000000000000007bffffffffffffffffffffffffffffffffffffffffffffffffffffffff1916827bffffffffffffffffffffffffffffffffffffffffffffffffffffffff1916145b80612542575061254182612e48565b5b9050919050565b612551610c3d565b15612591576040517f08c379a0000000000000000000000000000000000000000000000000000000008152600401612588906150bc565b60405180910390fd5b61259c838383612eb2565b505050565b6125ac838383612fc6565b505050565b600083838346306040516020016125cc95949392919061535e565b6040516020818303038152906040528051906020012090509392505050565b600060028284186125fc91906153e0565b8284166126099190614f42565b905092915050565b61261a81612fe2565b6000600a6000838152602001908152602001600020805461263a9061451f565b90501461266157600a600082815260200190815260200160002060006126609190613bcd565b5b50565b600061266f82610d06565b9050919050565b8173ffffffffffffffffffffffffffffffffffffffff168373ffffffffffffffffffffffffffffffffffffffff16141580156126b25750600081115b1561287e57600073ffffffffffffffffffffffffffffffffffffffff168373ffffffffffffffffffffffffffffffffffffffff161461279a576000806127436130ff84600d60008973ffffffffffffffffffffffffffffffffffffffff1673ffffffffffffffffffffffffffffffffffffffff1681526020019081526020016000206131159092919063ffffffff16565b915091508473ffffffffffffffffffffffffffffffffffffffff167fdec2bacdd2f05b59de34da9b523dff8be42e5e38e818c82fdb0bae774387a724838360405161278f929190615411565b60405180910390a250505b600073ffffffffffffffffffffffffffffffffffffffff168273ffffffffffffffffffffffffffffffffffffffff161461287d5760008061282661314384600d60008873ffffffffffffffffffffffffffffffffffffffff1673ffffffffffffffffffffffffffffffffffffffff1681526020019081526020016000206131159092919063ffffffff16565b915091508373ffffffffffffffffffffffffffffffffffffffff167fdec2bacdd2f05b59de34da9b523dff8be42e5e38e818c82fdb0bae774387a7248383604051612872929190615411565b60405180910390a250505b5b505050565b60006128a48473ffffffffffffffffffffffffffffffffffffffff16613159565b15612a0d578373ffffffffffffffffffffffffffffffffffffffff1663150b7a026128cd6115b5565b8786866040518563ffffffff1660e01b81526004016128ef949392919061548f565b602060405180830381600087803b15801561290957600080fd5b505af192505050801561293a57506040513d601f19601f8201168201806040525081019061293791906154f0565b60015b6129bd573d806000811461296a576040519150601f19603f3d011682016040523d82523d6000602084013e61296f565b606091505b506000815114156129b5576040517f08c379a00000000000000000000000000000000000000000000000000000000081526004016129ac906151ba565b60405180910390fd5b805181602001fd5b63150b7a0260e01b7bffffffffffffffffffffffffffffffffffffffffffffffffffffffff1916817bffffffffffffffffffffffffffffffffffffffffffffffffffffffff191614915050612a12565b600190505b949350505050565b60008282604051602001612a2f92919061558a565b60405160208183030381529060405280519060200120905092915050565b6000807f7fffffffffffffffffffffffffffffff5d576e7357a4501ddfe92f46681b20a08360001c1115612a88576000600391509150612b51565b601b8560ff1614158015612aa05750601c8560ff1614155b15612ab2576000600491509150612b51565b600060018787878760405160008152602001604052604051612ad794939291906155d0565b6020604051602081039080840390855afa158015612af9573d6000803e3d6000fd5b505050602060405103519050600073ffffffffffffffffffffffffffffffffffffffff168173ffffffffffffffffffffffffffffffffffffffff161415612b4857600060019250925050612b51565b80600092509250505b94509492505050565b60006004811115612b6e57612b6d615615565b5b816004811115612b8157612b80615615565b5b1415612b8c57612d2c565b60016004811115612ba057612b9f615615565b5b816004811115612bb357612bb2615615565b5b1415612bf4576040517f08c379a0000000000000000000000000000000000000000000000000000000008152600401612beb90615690565b60405180910390fd5b60026004811115612c0857612c07615615565b5b816004811115612c1b57612c1a615615565b5b1415612c5c576040517f08c379a0000000000000000000000000000000000000000000000000000000008152600401612c53906156fc565b60405180910390fd5b60036004811115612c7057612c6f615615565b5b816004811115612c8357612c82615615565b5b1415612cc4576040517f08c379a0000000000000000000000000000000000000000000000000000000008152600401612cbb9061578e565b60405180910390fd5b600480811115612cd757612cd6615615565b5b816004811115612cea57612ce9615615565b5b1415612d2b576040517f08c379a0000000000000000000000000000000000000000000000000000000008152600401612d2290615820565b60405180910390fd5b5b50565b606060405180602001604052806000815250905090565b6060612d5182611549565b612d90576040517f08c379a0000000000000000000000000000000000000000000000000000000008152600401612d87906158b2565b60405180910390fd5b6000612d9a612d2f565b90506000815111612dba5760405180602001604052806000815250612de5565b80612dc48461317c565b604051602001612dd59291906152a8565b6040516020818303038152906040525b915050919050565b612df783836132dd565b612e046000848484612883565b612e43576040517f08c379a0000000000000000000000000000000000000000000000000000000008152600401612e3a906151ba565b60405180910390fd5b505050565b60007f01ffc9a7000000000000000000000000000000000000000000000000000000007bffffffffffffffffffffffffffffffffffffffffffffffffffffffff1916827bffffffffffffffffffffffffffffffffffffffffffffffffffffffff1916149050919050565b612ebd8383836134b7565b600073ffffffffffffffffffffffffffffffffffffffff168373ffffffffffffffffffffffffffffffffffffffff161415612f0057612efb816134bc565b612f3f565b8173ffffffffffffffffffffffffffffffffffffffff168373ffffffffffffffffffffffffffffffffffffffff1614612f3e57612f3d8382613505565b5b5b600073ffffffffffffffffffffffffffffffffffffffff168273ffffffffffffffffffffffffffffffffffffffff161415612f8257612f7d81613672565b612fc1565b8273ffffffffffffffffffffffffffffffffffffffff168273ffffffffffffffffffffffffffffffffffffffff1614612fc057612fbf8282613743565b5b5b505050565b612fd2838360016137c2565b612fdd838383613882565b505050565b6000612fed82610c54565b9050612ffb81600084612549565b6130066000836115bd565b6001600360008373ffffffffffffffffffffffffffffffffffffffff1673ffffffffffffffffffffffffffffffffffffffff16815260200190815260200160002060008282546130569190614f0e565b925050819055506002600083815260200190815260200160002060006101000a81549073ffffffffffffffffffffffffffffffffffffffff021916905581600073ffffffffffffffffffffffffffffffffffffffff168273ffffffffffffffffffffffffffffffffffffffff167fddf252ad1be2c89b69c2b068fc378daa952ba7f163c4a11628f55a4df523b3ef60405160405180910390a46130fb816000846125a1565b5050565b6000818361310d9190614f0e565b905092915050565b6000806131378561313261312888611f66565b868863ffffffff16565b613887565b91509150935093915050565b600081836131519190614f42565b905092915050565b6000808273ffffffffffffffffffffffffffffffffffffffff163b119050919050565b606060008214156131c4576040518060400160405280600181526020017f300000000000000000000000000000000000000000000000000000000000000081525090506132d8565b600082905060005b600082146131f65780806131df906158d2565b915050600a826131ef91906153e0565b91506131cc565b60008167ffffffffffffffff81111561321257613211614033565b5b6040519080825280601f01601f1916602001820160405280156132445781602001600182028036833780820191505090505b5090505b600085146132d15760018261325d9190614f0e565b9150600a8561326c919061591b565b60306132789190614f42565b60f81b81838151811061328e5761328d6149bb565b5b60200101907effffffffffffffffffffffffffffffffffffffffffffffffffffffffffffff1916908160001a905350600a856132ca91906153e0565b9450613248565b8093505050505b919050565b600073ffffffffffffffffffffffffffffffffffffffff168273ffffffffffffffffffffffffffffffffffffffff16141561334d576040517f08c379a000000000000000000000000000000000000000000000000000000000815260040161334490615998565b60405180910390fd5b61335681611549565b15613396576040517f08c379a000000000000000000000000000000000000000000000000000000000815260040161338d90615a04565b60405180910390fd5b6133a260008383612549565b6001600360008473ffffffffffffffffffffffffffffffffffffffff1673ffffffffffffffffffffffffffffffffffffffff16815260200190815260200160002060008282546133f29190614f42565b92505081905550816002600083815260200190815260200160002060006101000a81548173ffffffffffffffffffffffffffffffffffffffff021916908373ffffffffffffffffffffffffffffffffffffffff160217905550808273ffffffffffffffffffffffffffffffffffffffff16600073ffffffffffffffffffffffffffffffffffffffff167fddf252ad1be2c89b69c2b068fc378daa952ba7f163c4a11628f55a4df523b3ef60405160405180910390a46134b3600083836125a1565b5050565b505050565b6008805490506009600083815260200190815260200160002081905550600881908060018154018082558091505060019003906000526020600020016000909190919091505550565b6000600161351284610d06565b61351c9190614f0e565b9050600060076000848152602001908152602001600020549050818114613601576000600660008673ffffffffffffffffffffffffffffffffffffffff1673ffffffffffffffffffffffffffffffffffffffff168152602001908152602001600020600084815260200190815260200160002054905080600660008773ffffffffffffffffffffffffffffffffffffffff1673ffffffffffffffffffffffffffffffffffffffff168152602001908152602001600020600084815260200190815260200160002081905550816007600083815260200190815260200160002081905550505b6007600084815260200190815260200160002060009055600660008573ffffffffffffffffffffffffffffffffffffffff1673ffffffffffffffffffffffffffffffffffffffff16815260200190815260200160002060008381526020019081526020016000206000905550505050565b600060016008805490506136869190614f0e565b90506000600960008481526020019081526020016000205490506000600883815481106136b6576136b56149bb565b5b9060005260206000200154905080600883815481106136d8576136d76149bb565b5b90600052602060002001819055508160096000838152602001908152602001600020819055506009600085815260200190815260200160002060009055600880548061372757613726615a24565b5b6001900381819060005260206000200160009055905550505050565b600061374e83610d06565b905081600660008573ffffffffffffffffffffffffffffffffffffffff1673ffffffffffffffffffffffffffffffffffffffff168152602001908152602001600020600083815260200190815260200160002081905550806007600084815260200190815260200160002081905550505050565b600073ffffffffffffffffffffffffffffffffffffffff168373ffffffffffffffffffffffffffffffffffffffff1614156138125761380f61314382600e6131159092919063ffffffff16565b50505b600073ffffffffffffffffffffffffffffffffffffffff168273ffffffffffffffffffffffffffffffffffffffff1614156138625761385f6130ff82600e6131159092919063ffffffff16565b50505b61387d61386e84610bba565b61387784610bba565b83612676565b505050565b505050565b60008060008460000180549050905060006138a186611f66565b90506000821180156138f7575043866000016001846138c09190614f0e565b815481106138d1576138d06149bb565b5b9060005260206000200160000160009054906101000a900463ffffffff1663ffffffff16145b156139875761390585613a89565b866000016001846139169190614f0e565b81548110613927576139266149bb565b5b9060005260206000200160000160046101000a8154817bffffffffffffffffffffffffffffffffffffffffffffffffffffffff02191690837bffffffffffffffffffffffffffffffffffffffffffffffffffffffff160217905550613a7a565b85600001604051806040016040528061399f43613af4565b63ffffffff1681526020016139b388613a89565b7bffffffffffffffffffffffffffffffffffffffffffffffffffffffff168152509080600181540180825580915050600190039060005260206000200160009091909190915060008201518160000160006101000a81548163ffffffff021916908363ffffffff16021790555060208201518160000160046101000a8154817bffffffffffffffffffffffffffffffffffffffffffffffffffffffff02191690837bffffffffffffffffffffffffffffffffffffffffffffffffffffffff16021790555050505b80859350935050509250929050565b60007bffffffffffffffffffffffffffffffffffffffffffffffffffffffff8016821115613aec576040517f08c379a0000000000000000000000000000000000000000000000000000000008152600401613ae390615ac5565b60405180910390fd5b819050919050565b600063ffffffff8016821115613b3f576040517f08c379a0000000000000000000000000000000000000000000000000000000008152600401613b3690615b57565b60405180910390fd5b819050919050565b828054613b539061451f565b90600052602060002090601f016020900481019282613b755760008555613bbc565b82601f10613b8e57805160ff1916838001178555613bbc565b82800160010185558215613bbc579182015b82811115613bbb578251825591602001919060010190613ba0565b5b509050613bc99190613c0d565b5090565b508054613bd99061451f565b6000825580601f10613beb5750613c0a565b601f016020900490600052602060002090810190613c099190613c0d565b5b50565b5b80821115613c26576000816000905550600101613c0e565b5090565b6000604051905090565b600080fd5b600080fd5b60007fffffffff0000000000000000000000000000000000000000000000000000000082169050919050565b613c7381613c3e565b8114613c7e57600080fd5b50565b600081359050613c9081613c6a565b92915050565b600060208284031215613cac57613cab613c34565b5b6000613cba84828501613c81565b91505092915050565b60008115159050919050565b613cd881613cc3565b82525050565b6000602082019050613cf36000830184613ccf565b92915050565b600081519050919050565b600082825260208201905092915050565b60005b83811015613d33578082015181840152602081019050613d18565b83811115613d42576000848401525b50505050565b6000601f19601f8301169050919050565b6000613d6482613cf9565b613d6e8185613d04565b9350613d7e818560208601613d15565b613d8781613d48565b840191505092915050565b60006020820190508181036000830152613dac8184613d59565b905092915050565b6000819050919050565b613dc781613db4565b8114613dd257600080fd5b50565b600081359050613de481613dbe565b92915050565b600060208284031215613e0057613dff613c34565b5b6000613e0e84828501613dd5565b91505092915050565b600073ffffffffffffffffffffffffffffffffffffffff82169050919050565b6000613e4282613e17565b9050919050565b613e5281613e37565b82525050565b6000602082019050613e6d6000830184613e49565b92915050565b613e7c81613e37565b8114613e8757600080fd5b50565b600081359050613e9981613e73565b92915050565b60008060408385031215613eb657613eb5613c34565b5b6000613ec485828601613e8a565b9250506020613ed585828601613dd5565b9150509250929050565b613ee881613db4565b82525050565b6000602082019050613f036000830184613edf565b92915050565b600080600060608486031215613f2257613f21613c34565b5b6000613f3086828701613e8a565b9350506020613f4186828701613e8a565b9250506040613f5286828701613dd5565b9150509250925092565b6000819050919050565b613f6f81613f5c565b82525050565b6000602082019050613f8a6000830184613f66565b92915050565b600060208284031215613fa657613fa5613c34565b5b6000613fb484828501613e8a565b91505092915050565b613fc681613cc3565b8114613fd157600080fd5b50565b600081359050613fe381613fbd565b92915050565b6000806040838503121561400057613fff613c34565b5b600061400e85828601613e8a565b925050602061401f85828601613fd4565b9150509250929050565b600080fd5b600080fd5b7f4e487b7100000000000000000000000000000000000000000000000000000000600052604160045260246000fd5b61406b82613d48565b810181811067ffffffffffffffff8211171561408a57614089614033565b5b80604052505050565b600061409d613c2a565b90506140a98282614062565b919050565b600067ffffffffffffffff8211156140c9576140c8614033565b5b6140d282613d48565b9050602081019050919050565b82818337600083830152505050565b60006141016140fc846140ae565b614093565b90508281526020810184848401111561411d5761411c61402e565b5b6141288482856140df565b509392505050565b600082601f83011261414557614144614029565b5b81356141558482602086016140ee565b91505092915050565b6000806000806080858703121561417857614177613c34565b5b600061418687828801613e8a565b945050602061419787828801613e8a565b93505060406141a887828801613dd5565b925050606085013567ffffffffffffffff8111156141c9576141c8613c39565b5b6141d587828801614130565b91505092959194509250565b600060ff82169050919050565b6141f7816141e1565b811461420257600080fd5b50565b600081359050614214816141ee565b92915050565b61422381613f5c565b811461422e57600080fd5b50565b6000813590506142408161421a565b92915050565b60008060008060008060c0878903121561426357614262613c34565b5b600061427189828a01613e8a565b965050602061428289828a01613dd5565b955050604061429389828a01613dd5565b94505060606142a489828a01614205565b93505060806142b589828a01614231565b92505060a06142c689828a01614231565b9150509295509295509295565b600067ffffffffffffffff8211156142ee576142ed614033565b5b6142f782613d48565b9050602081019050919050565b6000614317614312846142d3565b614093565b9050828152602081018484840111156143335761433261402e565b5b61433e8482856140df565b509392505050565b600082601f83011261435b5761435a614029565b5b813561436b848260208601614304565b91505092915050565b6000806040838503121561438b5761438a613c34565b5b600061439985828601613e8a565b925050602083013567ffffffffffffffff8111156143ba576143b9613c39565b5b6143c685828601614346565b9150509250929050565b600080604083850312156143e7576143e6613c34565b5b60006143f585828601613e8a565b925050602061440685828601613e8a565b9150509250929050565b600081519050919050565b600082825260208201905092915050565b6000819050602082019050919050565b61444581613db4565b82525050565b6000614457838361443c565b60208301905092915050565b6000602082019050919050565b600061447b82614410565b614485818561441b565b93506144908361442c565b8060005b838110156144c15781516144a8888261444b565b97506144b383614463565b925050600181019050614494565b5085935050505092915050565b600060208201905081810360008301526144e88184614470565b905092915050565b7f4e487b7100000000000000000000000000000000000000000000000000000000600052602260045260246000fd5b6000600282049050600182168061453757607f821691505b6020821081141561454b5761454a6144f0565b5b50919050565b7f4552433732313a20617070726f76656420717565727920666f72206e6f6e657860008201527f697374656e7420746f6b656e0000000000000000000000000000000000000000602082015250565b60006145ad602c83613d04565b91506145b882614551565b604082019050919050565b600060208201905081810360008301526145dc816145a0565b9050919050565b7f4552433732313a20617070726f76616c20746f2063757272656e74206f776e6560008201527f7200000000000000000000000000000000000000000000000000000000000000602082015250565b600061463f602183613d04565b915061464a826145e3565b604082019050919050565b6000602082019050818103600083015261466e81614632565b9050919050565b7f4552433732313a20617070726f76652063616c6c6572206973206e6f74206f7760008201527f6e6572206e6f7220617070726f76656420666f7220616c6c0000000000000000602082015250565b60006146d1603883613d04565b91506146dc82614675565b604082019050919050565b60006020820190508181036000830152614700816146c4565b9050919050565b7f4552433732313a207472616e736665722063616c6c6572206973206e6f74206f60008201527f776e6572206e6f7220617070726f766564000000000000000000000000000000602082015250565b6000614763603183613d04565b915061476e82614707565b604082019050919050565b6000602082019050818103600083015261479281614756565b9050919050565b7f455243373231456e756d657261626c653a206f776e657220696e646578206f7560008201527f74206f6620626f756e6473000000000000000000000000000000000000000000602082015250565b60006147f5602b83613d04565b915061480082614799565b604082019050919050565b60006020820190508181036000830152614824816147e8565b9050919050565b7f4f776e61626c653a2063616c6c6572206973206e6f7420746865206f776e6572600082015250565b6000614861602083613d04565b915061486c8261482b565b602082019050919050565b6000602082019050818103600083015261489081614854565b9050919050565b7f4552433732314275726e61626c653a2063616c6c6572206973206e6f74206f7760008201527f6e6572206e6f7220617070726f76656400000000000000000000000000000000602082015250565b60006148f3603083613d04565b91506148fe82614897565b604082019050919050565b60006020820190508181036000830152614922816148e6565b9050919050565b7f455243373231456e756d657261626c653a20676c6f62616c20696e646578206f60008201527f7574206f6620626f756e64730000000000000000000000000000000000000000602082015250565b6000614985602c83613d04565b915061499082614929565b604082019050919050565b600060208201905081810360008301526149b481614978565b9050919050565b7f4e487b7100000000000000000000000000000000000000000000000000000000600052603260045260246000fd5b7f4552433732313a206f776e657220717565727920666f72206e6f6e657869737460008201527f656e7420746f6b656e0000000000000000000000000000000000000000000000602082015250565b6000614a46602983613d04565b9150614a51826149ea565b604082019050919050565b60006020820190508181036000830152614a7581614a39565b9050919050565b7f4552433732313a2062616c616e636520717565727920666f7220746865207a6560008201527f726f206164647265737300000000000000000000000000000000000000000000602082015250565b6000614ad8602a83613d04565b9150614ae382614a7c565b604082019050919050565b60006020820190508181036000830152614b0781614acb565b9050919050565b7f566f7465733a20626c6f636b206e6f7420796574206d696e6564000000000000600082015250565b6000614b44601a83613d04565b9150614b4f82614b0e565b602082019050919050565b60006020820190508181036000830152614b7381614b37565b9050919050565b7f566f7465733a207369676e617475726520657870697265640000000000000000600082015250565b6000614bb0601883613d04565b9150614bbb82614b7a565b602082019050919050565b60006020820190508181036000830152614bdf81614ba3565b9050919050565b6000608082019050614bfb6000830187613f66565b614c086020830186613e49565b614c156040830185613edf565b614c226060830184613edf565b95945050505050565b7f566f7465733a20696e76616c6964206e6f6e6365000000000000000000000000600082015250565b6000614c61601483613d04565b9150614c6c82614c2b565b602082019050919050565b60006020820190508181036000830152614c9081614c54565b9050919050565b7f4f776e61626c653a206e6577206f776e657220697320746865207a65726f206160008201527f6464726573730000000000000000000000000000000000000000000000000000602082015250565b6000614cf3602683613d04565b9150614cfe82614c97565b604082019050919050565b60006020820190508181036000830152614d2281614ce6565b9050919050565b7f4552433732313a206f70657261746f7220717565727920666f72206e6f6e657860008201527f697374656e7420746f6b656e0000000000000000000000000000000000000000602082015250565b6000614d85602c83613d04565b9150614d9082614d29565b604082019050919050565b60006020820190508181036000830152614db481614d78565b9050919050565b7f4552433732313a207472616e736665722066726f6d20696e636f72726563742060008201527f6f776e6572000000000000000000000000000000000000000000000000000000602082015250565b6000614e17602583613d04565b9150614e2282614dbb565b604082019050919050565b60006020820190508181036000830152614e4681614e0a565b9050919050565b7f4552433732313a207472616e7366657220746f20746865207a65726f2061646460008201527f7265737300000000000000000000000000000000000000000000000000000000602082015250565b6000614ea9602483613d04565b9150614eb482614e4d565b604082019050919050565b60006020820190508181036000830152614ed881614e9c565b9050919050565b7f4e487b7100000000000000000000000000000000000000000000000000000000600052601160045260246000fd5b6000614f1982613db4565b9150614f2483613db4565b925082821015614f3757614f36614edf565b5b828203905092915050565b6000614f4d82613db4565b9150614f5883613db4565b9250827fffffffffffffffffffffffffffffffffffffffffffffffffffffffffffffffff03821115614f8d57614f8c614edf565b5b828201905092915050565b7f436865636b706f696e74733a20626c6f636b206e6f7420796574206d696e6564600082015250565b6000614fce602083613d04565b9150614fd982614f98565b602082019050919050565b60006020820190508181036000830152614ffd81614fc1565b9050919050565b7f5061757361626c653a206e6f7420706175736564000000000000000000000000600082015250565b600061503a601483613d04565b915061504582615004565b602082019050919050565b600060208201905081810360008301526150698161502d565b9050919050565b7f5061757361626c653a2070617573656400000000000000000000000000000000600082015250565b60006150a6601083613d04565b91506150b182615070565b602082019050919050565b600060208201905081810360008301526150d581615099565b9050919050565b7f4552433732313a20617070726f766520746f2063616c6c657200000000000000600082015250565b6000615112601983613d04565b915061511d826150dc565b602082019050919050565b6000602082019050818103600083015261514181615105565b9050919050565b7f4552433732313a207472616e7366657220746f206e6f6e20455243373231526560008201527f63656976657220696d706c656d656e7465720000000000000000000000000000602082015250565b60006151a4603283613d04565b91506151af82615148565b604082019050919050565b600060208201905081810360008301526151d381615197565b9050919050565b7f45524337323155524953746f726167653a2055524920717565727920666f722060008201527f6e6f6e6578697374656e7420746f6b656e000000000000000000000000000000602082015250565b6000615236603183613d04565b9150615241826151da565b604082019050919050565b6000602082019050818103600083015261526581615229565b9050919050565b600081905092915050565b600061528282613cf9565b61528c818561526c565b935061529c818560208601613d15565b80840191505092915050565b60006152b48285615277565b91506152c08284615277565b91508190509392505050565b7f45524337323155524953746f726167653a2055524920736574206f66206e6f6e60008201527f6578697374656e7420746f6b656e000000000000000000000000000000000000602082015250565b6000615328602e83613d04565b9150615333826152cc565b604082019050919050565b600060208201905081810360008301526153578161531b565b9050919050565b600060a0820190506153736000830188613f66565b6153806020830187613f66565b61538d6040830186613f66565b61539a6060830185613edf565b6153a76080830184613e49565b9695505050505050565b7f4e487b7100000000000000000000000000000000000000000000000000000000600052601260045260246000fd5b60006153eb82613db4565b91506153f683613db4565b925082615406576154056153b1565b5b828204905092915050565b60006040820190506154266000830185613edf565b6154336020830184613edf565b9392505050565b600081519050919050565b600082825260208201905092915050565b60006154618261543a565b61546b8185615445565b935061547b818560208601613d15565b61548481613d48565b840191505092915050565b60006080820190506154a46000830187613e49565b6154b16020830186613e49565b6154be6040830185613edf565b81810360608301526154d08184615456565b905095945050505050565b6000815190506154ea81613c6a565b92915050565b60006020828403121561550657615505613c34565b5b6000615514848285016154db565b91505092915050565b7f1901000000000000000000000000000000000000000000000000000000000000600082015250565b600061555360028361526c565b915061555e8261551d565b600282019050919050565b6000819050919050565b61558461557f82613f5c565b615569565b82525050565b600061559582615546565b91506155a18285615573565b6020820191506155b18284615573565b6020820191508190509392505050565b6155ca816141e1565b82525050565b60006080820190506155e56000830187613f66565b6155f260208301866155c1565b6155ff6040830185613f66565b61560c6060830184613f66565b95945050505050565b7f4e487b7100000000000000000000000000000000000000000000000000000000600052602160045260246000fd5b7f45434453413a20696e76616c6964207369676e61747572650000000000000000600082015250565b600061567a601883613d04565b915061568582615644565b602082019050919050565b600060208201905081810360008301526156a98161566d565b9050919050565b7f45434453413a20696e76616c6964207369676e6174757265206c656e67746800600082015250565b60006156e6601f83613d04565b91506156f1826156b0565b602082019050919050565b60006020820190508181036000830152615715816156d9565b9050919050565b7f45434453413a20696e76616c6964207369676e6174757265202773272076616c60008201527f7565000000000000000000000000000000000000000000000000000000000000602082015250565b6000615778602283613d04565b91506157838261571c565b604082019050919050565b600060208201905081810360008301526157a78161576b565b9050919050565b7f45434453413a20696e76616c6964207369676e6174757265202776272076616c60008201527f7565000000000000000000000000000000000000000000000000000000000000602082015250565b600061580a602283613d04565b9150615815826157ae565b604082019050919050565b60006020820190508181036000830152615839816157fd565b9050919050565b7f4552433732314d657461646174613a2055524920717565727920666f72206e6f60008201527f6e6578697374656e7420746f6b656e0000000000000000000000000000000000602082015250565b600061589c602f83613d04565b91506158a782615840565b604082019050919050565b600060208201905081810360008301526158cb8161588f565b9050919050565b60006158dd82613db4565b91507fffffffffffffffffffffffffffffffffffffffffffffffffffffffffffffffff8214156159105761590f614edf565b5b600182019050919050565b600061592682613db4565b915061593183613db4565b925082615941576159406153b1565b5b828206905092915050565b7f4552433732313a206d696e7420746f20746865207a65726f2061646472657373600082015250565b6000615982602083613d04565b915061598d8261594c565b602082019050919050565b600060208201905081810360008301526159b181615975565b9050919050565b7f4552433732313a20746f6b656e20616c7265616479206d696e74656400000000600082015250565b60006159ee601c83613d04565b91506159f9826159b8565b602082019050919050565b60006020820190508181036000830152615a1d816159e1565b9050919050565b7f4e487b7100000000000000000000000000000000000000000000000000000000600052603160045260246000fd5b7f53616665436173743a2076616c756520646f65736e27742066697420696e203260008201527f3234206269747300000000000000000000000000000000000000000000000000602082015250565b6000615aaf602783613d04565b9150615aba82615a53565b604082019050919050565b60006020820190508181036000830152615ade81615aa2565b9050919050565b7f53616665436173743a2076616c756520646f65736e27742066697420696e203360008201527f3220626974730000000000000000000000000000000000000000000000000000602082015250565b6000615b41602683613d04565b9150615b4c82615ae5565b604082019050919050565b60006020820190508181036000830152615b7081615b34565b905091905056fea264697066735822122088fdedb7580678c9011098aec6b00e1c8652d1028217515e6e5eabd842c98f2964736f6c63430008090033",
  "linkReferences": {},
  "deployedLinkReferences": {}
}